:1000000042C0000048C0000046C0000044C00000DC
:1000100042C0000040C000003EC000003CC00000E4
:100020003AC0000038C0000036C0000034C00000F4
:1000300032C0000030C000002EC000002CC0000004
:100040002AC0000028C0000026C0000024C0000014
:1000500022C0000020C000001EC000001CC0000024
:100060001AC0000018C0000005A84CCDB2D44EB98B
:100070003836A9020C50B9918688083CA6AAAA2A4B
:10008000BE000000803F11241FBECFEFD8E0DEBFCE
:10009000CDBFB5D35AC7B4CF80E58CBD08958EBD12
:1000A0000DB407FEFDCF08959EBD0DB407FEFDCF34
:1000B0008EBD0DB407FEFDCF089529988FE99FE00E
:1000C0000197F1F700C00000299A9FEF23EC89E027
:1000D000915020408040E1F700C0000008952A9828
:1000E0008EBD0DB407FEFDCF2A9A0895E6DF81E1AB
:1000F000F6DF2FEF82E597E0215080409040E1F756
:1001000000C000008AE3EBDF85E0C9DF89E2E7CFCA
:100110000F931F93CF93DF93082FD62F142FC22F47
:100120008AE2DDDF802F90E0BFDF812F90E0BCDF2F
:100130008BE2D5DF8D2F90E0B7DF8C2F90E0B4DF1E
:10014000DF91CF911F910F9108956115710559F0BD
:100150009EBD0DB407FEFDCF8EBD0DB407FEFDCFD5
:1001600061507109F2CF0895CF93DF93EA01262FF2
:10017000482FCEDF8CE2B3DF61E070E0CE01E5DF37
:10018000DF91CF910895CF93DF93EC012FE74FE9F3
:1001900060E080E0BDDF8CE2A2DF60E070E5CE01D0
:1001A000D4DFDF91CF910895ECE7F0E080818064A7
:1001B0008083EAE7F0E080818760808380818068C7
:1001C0008083089590917C00907F892B80937C00A0
:1001D00080917A00806580937A0080917A0084FD16
:1001E000FCCF8091780090917900089520E030E074
:1001F000522F432F2F5F3F4F8230910518F0969575
:100200008795F6CF852F942F08950F931F93CF9343
:10021000DF93EC0120E030E080E090E08B010150C2
:100220001109A1E0B0E026173707F1F0A801421B41
:10023000530BFD0102C0EE0FFF1F4A95E2F7EC23BE
:10024000FD23AD01022E02C0440F551F0A94E2F7B0
:10025000EF2B19F0842B952B04C0409550958423E7
:1002600095232F5F3F4FDFCFDF91CF911F910F91EC
:1002700008952F923F924F925F927F928F929F921A
:10028000AF92BF92CF92DF92EF92FF920F931F93A4
:10029000CF93DF93CDB7DEB7A0970FB6F894DEBF4C
:1002A0000FBECDBF29873A874B875C876D877E87D6
:1002B0008F87988BA98ABA8ACB8ADC8AED8AFE8AD4
:1002C0000F8B188F89849A84AB84BC848D859E851E
:1002D000AF85B889898F9A8FAB8FBC8F29883A8870
:1002E0004B885C88CD88DE88EF88F88CA501940166
:1002F000C201B10134D56D8F7E8F8F8F98A3298D68
:100300003A8D4B8D5C8DC701B60129D59B01AC019F
:100310006D8D7E8D8F8D98A15AD3762EAB01BC0149
:1003200049835A836B837C83A5019401C701B6017D
:1003300016D56B017C01298D3A8D4B8D5C8DC201E8
:10034000B1010DD59B01AC01C701B60141D3E62F28
:10035000462F572FBC014D835E836F837887272DEF
:100360003A814B815C816E2F7E818F819885A0962A
:100370000FB6F894DEBF0FBECDBFDF91CF911F91B6
:100380000F91FF90EF90DF90CF90BF90AF909F9034
:100390008F907F905F904F903F902F900895A8E1AD
:1003A000B0E0E4EDF1E0D0C229873A874B875C8763
:1003B0006D877E878F87988BA98ABA8ACB8ADC8AD9
:1003C000ED8AFE8A0F8B188F2D893E894F89588DB3
:1003D0006D857E858F859889FBD2162FE72EF82EA6
:1003E000092F29893A894B895C8969857A858B85AA
:1003F0009C85EED29B01AB01BC0149835A836B8380
:100400007C83812F9E2DAF2DB02F8D839E83AF8354
:10041000B8873A814B815C81612F7E818F8198857D
:100420006896EAE0ADC2A8E1B0E0E8E1F2E08CC293
:1004300029873A874B875C876D877E878F87988B64
:10044000A98ABA8ACB8ADC8AED8AFE8A0F8B188F3A
:100450002D893E894F89588D6D857E858F85988938
:10046000B6D2162FE72EF82E092F29893A894B8903
:100470005C8969857A858B859C85A9D29B01AB01B6
:10048000BC0149835A836B837C83812F9E2DAF2DC2
:10049000B02F8D839E83AF83B8873A814B815C8177
:1004A000612F7E818F8198856896EAE069C28F927C
:1004B0009F92AF92BF92CF92DF92EF92FF92CF9333
:1004C000DF93CDB7DEB728970FB6F894DEBF0FBE27
:1004D000CDBF29833A834B835C836D837E838F8377
:1004E000988769817A818B819C81CD80DE80EF80C5
:1004F000F8849B01AC0133D44B015C01A701960148
:10050000C701B6012CD49B01AC01C501B40160D276
:1005100093D428960FB6F894DEBF0FBECDBFDF91FF
:10052000CF91FF90EF90DF90CF90BF90AF909F90D2
:100530008F9008958F929F92AF92BF92CF92DF9249
:10054000EF92FF92CF93DF93CDB7DEB728970FB628
:10055000F894DEBF0FBECDBF29833A834B835C8303
:100560006D837E838F83988769817A818B819C815B
:10057000CD80DE80EF80F8849B01AC01F0D34B018D
:100580005C01A7019601C701B601E9D39B01AC014B
:10059000C501B4011DD250D4EAD2CB0128960FB6C2
:1005A000F894DEBF0FBECDBFDF91CF91FF90EF90EB
:1005B000DF90CF90BF90AF909F908F900895ACE167
:1005C000B0E0E4EEF2E0B8C19A8B898B3E8B2D8BC4
:1005D000CA0157FD01969C01359527953C8B2B8BC5
:1005E0001E821D8241E050E05A834983ED81FE81E5
:1005F0002D893E89E217F3070CF0FEC01C821B8296
:100600001C861B86212C312C82E090E00D8002C0DC
:10061000880F991F0A94E2F79C01990F440B550B20
:100620002F8B388F498F5A8F2B813C814B895C8966
:1006300089819A81241735070CF0D4C02816390611
:1006400041F4AB85BC85A20DB31DBC87AB87212CC3
:10065000312C8B819C8169817A815BD1BC01990F9E
:10066000880B990BB7D22BED3FE049EC50EC77D3D8
:100670006B017C016F89788D898D9A8DABD29B013E
:10068000AC01C701B6010BD26B017C0105D26F83AF
:10069000788789879A87C701B601C4D36B017C012B
:1006A000EB85FC852B813C81E20FF31FFC8FEB8FE8
:1006B00009811A810E0F1F1F33E0000F111F3A9599
:1006C000E1F749895A89040F151FD8018D909D9033
:1006D000AD90BC90139714962D913D914D915C91E6
:1006E00017972D873E874F87588BA50194016F81FF
:1006F000788589859A8533D32B013C012D853E85EC
:100700004F855889C701B6012AD39B01AC01C301AB
:10071000B2015DD12B013C01A5019401C701B601D5
:100720001ED36B017C012D853E854F8558896F81D5
:10073000788589859A8513D39B01AC01C701B601E1
:1007400047D16B017C01EB8DFC8D43E0EE0FFF1F69
:100750004A95E1F729893A89E20FF31FF887EF8379
:100760009B01AC01648175818681978130D14B01F9
:100770005C01A3019201AF81B8856D917D918D914E
:100780009C9125D1F8016083718382839383848255
:100790009582A682B782EF81F885248135814681D2
:1007A0005781C701B60114D16B017C01A3019201ED
:1007B000AF81B8856D917D918D919C9109D1EF812B
:1007C000F8856083718382839383C482D582E682B5
:1007D000F782BFEF2B1A3B0AEB81FC813196FC8339
:1007E000EB8322CF880F991F9A838983AD81BE81C5
:1007F0001196BE83AD83FACE6C96E2E1B9C0A0E05B
:10080000B4E0E4E0F4E09EC084B18E6284B938982C
:10081000CE0101966C017C0100E010E065E070E023
:10082000C801F3DCF701819391937F010F5F1F4FA4
:100830000032110599F7299880E58CBD57DCB4DCAE
:1008400086E34DDC80E62BDC80E090E09CDC8E01D2
:100850000F5F1C4F4E01FFEF8F1AFBEF9F0A5801ED
:10086000F8011482158216821782F601E190F19048
:100870006F0180E090E0A6DC23E0EE0CFF1C2A95DF
:10088000E1F7EA0CFB1CBC01990F880B990BA2D174
:10089000F70160837183828393838FE39CE90197DF
:1008A000F1F700C00000085F1F4F08151905C1F6D9
:1008B00025E030E040E250E0BE016F5F7D4FC501B2
:1008C0007EDE40EE5FEF60E080E04EDC01E010E0B5
:1008D000F80183E0EE0FFF1F8A95E1F781E092E0D7
:1008E0008C0F9D1FE80FF91F2081318142815381B8
:1008F00064817581868197811DDE6AE0680F40EE14
:100900005FEF802F31DC0F5F1F4F0032110501F7C1
:10091000FFCF97FB072E16F4009406D077FD08D082
:1009200042D007FC05D03EF4909581959F4F0895E5
:10093000709561957F4F08952F923F924F925F92ED
:100940006F927F928F929F92AF92BF92CF92DF92DF
:10095000EF92FF920F931F93CF93DF93CDB7DEB744
:10096000CA1BDB0B0FB6F894DEBF0FBECDBF0994D8
:100970002A88398848885F846E847D848C849B842F
:10098000AA84B984C884DF80EE80FD800C811B813D
:10099000AA81B981CE0FD11D0FB6F894DEBF0FBE6C
:1009A000CDBFED010895AA1BBB1B51E107C0AA1FD3
:1009B000BB1FA617B70710F0A61BB70B881F991F00
:1009C0005A95A9F780959095BC01CD01089550588E
:1009D000BB27AA270ED078C141D130F046D120F0F4
:1009E00031F49F3F11F41EF436C10EF4E095E7FB9D
:1009F0002CC1E92F8BD180F3BA17620773078407E4
:100A0000950718F071F49EF5A3C10EF4E0950B2E36
:100A1000BA2FA02D0B01B90190010C01CA01A00150
:100A20001124FF27591B99F0593F50F4503E68F1AB
:100A30001A16F040A22F232F342F4427585FF3CFEC
:100A4000469537952795A795F0405395C9F77EF4BD
:100A50001F16BA0B620B730B840BBAF09150A1F006
:100A6000FF0FBB1F661F771F881FC2F70EC0BA0F8C
:100A7000621F731F841F48F4879577956795B79514
:100A8000F7959E3F08F0B3CF9395880F08F099270C
:100A9000EE0F979587950895F0D0E39526C10CD079
:100AA00013C1E3D040F0DAD030F021F45F3F19F009
:100AB000CCC051114EC1CFC029D198F39923C9F3AD
:100AC0005523B1F3951B550BBB27AA276217730754
:100AD000840738F09F5F5F4F220F331F441FAA1F08
:100AE000A9F333D00E2E3AF0E0E830D091505040C8
:100AF000E695001CCAF729D0FE2F27D0660F771F76
:100B0000881FBB1F261737074807AB07B0E809F057
:100B1000BB0B802DBF01FF2793585F4F2AF09E3FEC
:100B2000510568F092C015C15F3FECF3983EDCF3CD
:100B3000869577956795B795F7959F5FC9F7880F65
:100B4000911D9695879597F90895E1E0660F771FB7
:100B5000881FBB1F621773078407BA0720F0621B48
:100B6000730B840BBA0BEE1F88F7E095089504D041
:100B70006894B111EEC00895D1D088F09F5790F0DD
:100B8000B92F9927B751A0F0D1F0660F771F881FB2
:100B9000991F1AF0BA95C9F712C0B13081F0D8D0B8
:100BA000B1E00895D5C0672F782F8827B85F39F056
:100BB000B93FCCF3869577956795B395D9F73EF411
:100BC00090958095709561957F4F8F4F9F4F0895B9
:100BD000E89409C097FB3EF49095809570956195D7
:100BE0007F4F8F4F9F4F9923A9F0F92F96E9BB278D
:100BF0009395F695879577956795B795F111F8CF09
:100C0000FAF4BB0F11F460FF1BC06F5F7F4F8F4F73
:100C10009F4F16C0882311F096E911C0772321F069
:100C20009EE8872F762F05C0662371F096E8862F01
:100C300070E060E02AF09A95660F771F881FDAF758
:100C4000880F9695879597F9089597F99F6780E89B
:100C500070E060E008959FEF80EC089500240A940E
:100C60001616170618060906089500240A94121687
:100C70001306140605060895EECF50D0E8F3E89465
:100C8000E0E0BB279F57F0F02AED3FE049EC06C0BB
:100C9000EE0FBB0F661F771F881F28F0B23A62075E
:100CA0007307840728F0B25A620B730B840BE39529
:100CB0009A9572F7803830F49A95BB0F661F771FAC
:100CC000881FD2F79048F8C0092E0394000C11F445
:100CD000882352F0BB0F40F4BF2B11F460FF04C017
:100CE0006F5F7F4F8F4F9F4F0895EF93E0FF06C0D8
:100CF000A2EA2AED3FE049EC5FEB7BDEE5DF0F90F7
:100D0000039401FC9058E8E6F0E0E9C057FD9058E4
:100D1000440F551F59F05F3F71F04795880F97FBBF
:100D2000991F61F09F3F79F0879508951216130679
:100D30001406551FF2CF4695F1DF08C016161706A8
:100D40001806991FF1CF86957105610508940895DD
:100D5000E894BB2766277727CB0197F908950BD036
:100D6000B3CF7CDF28F081DF18F0952309F06DCF39
:100D700072CF1124EECFCADFA0F3959FD1F3950F68
:100D800050E0551F629FF001729FBB27F00DB11D0F
:100D9000639FAA27F00DB11DAA1F649F6627B00D9F
:100DA000A11D661F829F2227B00DA11D621F739F88
:100DB000B00DA11D621F839FA00D611D221F749F96
:100DC0003327A00D611D231F849F600D211D822FDD
:100DD000762F6A2F11249F5750408AF0E1F0882324
:100DE0004AF0EE0FFF1FBB1F661F771F881F915031
:100DF0005040A9F79E3F510570F027CFAACF5F3F23
:100E0000ECF3983EDCF3869577956795B795F79563
:100E1000E7959F5FC1F7FE2B880F911D96958795EB
:100E200097F908959F9329DF0F9007FCEE5F5DCF40
:100E300011F40EF410CF3EC071DFD0F39923D9F333
:100E4000CEF39F57550B87FF43D00024A0E640EA1E
:100E5000900180585695979528F4805C660F771F0F
:100E6000881F20F026173707480730F4621B730BE2
:100E7000840B202931294A2BA69517940794202505
:100E800031254A2758F7660F771F881F20F026174D
:100E90003707480730F4620B730B840B200D311DAC
:100EA000411DA09581F7B901842F9158880F96951F
:100EB000879508959F3F31F0915020F4879577955D
:100EC0006795B795880F911D9695879597F9089521
:100ED00091505040660F771F881FD2F708959F9357
:100EE0008F937F936F93FF93EF939B01AC0137DF59
:100EF000EF91FF9105D02F913F914F915F912FCFAF
:100F0000DF93CF931F930F93FF92EF92DF927B01BA
:100F10008C01689405C0DA2EEF012DDFFE01E89404
:100F2000A5912591359145915591AEF3EF0161DD84
:100F3000FE019701A801DA9479F7DF90EF90FF9016
:0E0F40000F911F91CF91DF910895F894FFCF8C
:00000001FF
