:100000006FC000007EC000007CC000007AC000000D
:1000100078C0000076C0000074C0000072C000000C
:1000200070C000006EC000006CC0000090C00000F6
:1000300068C0000066C00000E5C0000062C00000AB
:1000400060C000005EC000005CC000005AC000003C
:1000500058C0000056C0000054C0000052C000004C
:1000600050C000004EC0000005A84CCDB2D44EB91F
:100070003836A9020C50B9918688083CA6AAAA2A4B
:10008000BE000000803F08000000BE922449123EDE
:10009000ABAAAA2ABECDCCCC4C3E00000080BEABA1
:1000A000AAAAAA3E00000000BF000000803F000096
:1000B000000000084178D3BB4387D1133D190E3CA3
:1000C000C3BD4282AD2B3E68EC8276BED98FE1A9DA
:1000D0003E4C80EFFFBE01C4FF7F3F0000000000E8
:1000E00011241FBECFEFD8E0DEBFCDBF21E0A0E0DE
:1000F000B1E001C01D92A43CB207E1F714D40C9406
:1001000025097ECF8CB580618CBD8DB581608DBD9C
:100110008CB580648CBD08955E988EBD0DB407FECD
:10012000FDCF7EBD0DB407FEFDCF6EBD0DB407FE45
:10013000FDCF5E9A08958617970741F068177907F3
:100140001CF081E090E008958FEF9FEF08951F92DB
:100150000F920FB60F921124EF92FF920F931F93FD
:100160002F933F934F935F936F937F938F939F93BF
:10017000AF93BF93CF93DF93EF93FF93C0E0D0E0B3
:100180000FE010E0EE24E394F12CFE01EE0FFF1FD0
:10019000EE5DFE4F8081918198012C1B3D0BB701D4
:1001A00002C0660F771F2A95E2F70197970102C0F8
:1001B000220F331F8A95E2F7C9018150ADDF2196E6
:1001C000C031D10511F7C0E1D0E060E070E080E01F
:1001D000A3DF2197D1F7FF91EF91DF91CF91BF91ED
:1001E000AF919F918F917F916F915F914F913F91CF
:1001F0002F911F910F91FF90EF900F900FBE0F90D6
:100200001F9018951F920F920FB60F9211242F93E3
:100210003F934F935F936F937F938F939F93AF938E
:10022000BF93CF93DF93EF93FF9380912001909141
:100230002101019690932101809320018091C201B8
:100240009091C30101969093C3018093C201809164
:10025000C2019091C3018436910519F580E090E0C8
:10026000FC01EE0FFF1FDF01A050BF4F4D915C91CD
:100270001197EE5DFE4F20813181421753072CF418
:10028000208131812150310902C02D913C9131836F
:10029000208301968031910519F71092C3011092C5
:1002A000C2018091200190912101883C9105F9F4CF
:1002B000C0E0D0E0FE01EE0FFF1FEE0FFF1FEE5B70
:1002C000FE4F6081718182819381F1D64DD64FD5E9
:1002D000FE01EE0FFF1FE050FF4F718360832196F8
:1002E000C031D10539F71092210110922001FF9100
:1002F000EF91DF91CF91BF91AF919F918F917F91BE
:100300006F915F914F913F912F910F900FBE0F9082
:100310001F90189520E030E0522F432F2F5F3F4F62
:100320008230910518F096958795F6CF852F942FFA
:1003300008950F931F93CF93DF93EC0120E030E0FB
:1003400080E090E08B0101501109A1E0B0E0261798
:100350003707F1F0A801421B530BFD0102C0EE0F5D
:10036000FF1F4A95E2F7EC23FD23AD01022E02C0E8
:10037000440F551F0A94E2F7EF2B19F0842B952BAD
:1003800004C040955095842395232F5F3F4FDFCFC6
:10039000DF91CF911F910F9108952F923F924F922D
:1003A0005F927F928F929F92AF92BF92CF92DF9295
:1003B000EF92FF920F931F93CF93DF93CDB7DEB7EA
:1003C000A0970FB6F894DEBF0FBECDBF29873A873E
:1003D0004B875C876D877E878F87988BA98ABA8ABF
:1003E000CB8ADC8AED8AFE8A0F8B188F89849A84E7
:1003F000AB84BC848D859E85AF85B889898F9A8FA3
:10040000AB8FBC8F29883A884B885C88CD88DE8882
:10041000EF88F88CA5019401C201B101E5D56D8F7B
:100420007E8F8F8F98A3298D3A8D4B8D5C8DC70160
:10043000B601DAD59B01AC016D8D7E8D8F8D98A1B3
:10044000C6D3762EAB01BC0149835A836B837C8370
:10045000A5019401C701B601C7D56B017C01298DA7
:100460003A8D4B8D5C8DC201B101BED59B01AC01B3
:10047000C701B601ADD3E62F462F572FBC014D83E0
:100480005E836F837887272D3A814B815C816E2F45
:100490007E818F819885A0960FB6F894DEBF0FBE3F
:1004A000CDBFDF91CF911F910F91FF90EF90DF9023
:1004B000CF90BF90AF909F908F907F905F904F9024
:1004C0003F902F900895A8E1B0E0E8E6F2E03CC349
:1004D00029873A874B875C876D877E878F87988BC4
:1004E000A98ABA8ACB8ADC8AED8AFE8A0F8B188F9A
:1004F0002D893E894F89588D6D857E858F85988998
:1005000067D3162FE72EF82E092F29893A894B89B0
:100510005C8969857A858B859C855AD39B01AB0163
:10052000BC0149835A836B837C83812F9E2DAF2D21
:10053000B02F8D839E83AF83B8873A814B815C81D6
:10054000612F7E818F8198856896EAE019C3A8E1C2
:10055000B0E0ECEAF2E0F8C229873A874B875C8783
:100560006D877E878F87988BA98ABA8ACB8ADC8A27
:10057000ED8AFE8A0F8B188F2D893E894F89588D01
:100580006D857E858F85988922D3162FE72EF82ECC
:10059000092F29893A894B895C8969857A858B85F8
:1005A0009C8515D39B01AB01BC0149835A836B83A6
:1005B0007C83812F9E2DAF2DB02F8D839E83AF83A3
:1005C000B8873A814B815C81612F7E818F819885CC
:1005D0006896EAE0D5C28F929F92AF92BF92CF9277
:1005E000DF92EF92FF92CF93DF93CDB7DEB72897DC
:1005F0000FB6F894DEBF0FBECDBF29833A834B837D
:100600005C836D837E838F83988769817A818B81F8
:100610009C81CD80DE80EF80F8849B01AC01E4D426
:100620004B015C01A7019601C701B601DDD49B0116
:10063000AC01C501B401CCD264D528960FB6F894AC
:10064000DEBF0FBECDBFDF91CF91FF90EF90DF9067
:10065000CF90BF90AF909F908F9008958F929F9270
:10066000AF92BF92CF92DF92EF92FF92CF93DF9340
:10067000CDB7DEB728970FB6F894DEBF0FBECDBF5B
:1006800029833A834B835C836D837E838F83988732
:1006900069817A818B819C81CD80DE80EF80F884B6
:1006A0009B01AC01A1D44B015C01A7019601C701DC
:1006B000B6019AD49B01AC01C501B40189D221D500
:1006C00056D3CB0128960FB6F894DEBF0FBECDBF30
:1006D000DF91CF91FF90EF90DF90CF90BF90AF90E0
:1006E0009F908F900895ACE1B0E0E8E7F3E024C27A
:1006F0009A8B898B5E8B4D8BCB0177FD01969C018C
:10070000359527953C8B2B8B1E821D8241E050E056
:100710005A834983ED81FE812D893E89E217F307D3
:100720000CF0FEC01C821B821C861B86212C312CE7
:1007300082E090E00D8002C0880F991F0A94E2F7D2
:100740009C01990F440B550B2F8B388F498F5A8F73
:100750002B813C814B895C8989819A8124173507DB
:100760000CF0D4C02816390641F4AB85BC85A20D27
:10077000B31DBC87AB87212C312C8B819C81698177
:100780007A81C7D1BC01990F880B990B23D32BED2C
:100790003FE049EC50EC28D46B017C016F89788DE7
:1007A000898D9A8D17D39B01AC01C701B60177D211
:1007B0006B017C0171D26F83788789879A87C70123
:1007C000B60195D46B017C01EB85FC852B813C81C6
:1007D000E20FF31FFC8FEB8F09811A810E0F1F1F91
:1007E00033E0000F111F3A95E1F749895A89040F48
:1007F000151FD8018D909D90AD90BC9013971496C5
:100800002D913D914D915C9117972D873E874F8794
:10081000588BA50194016F81788589859A85E4D3E9
:100820002B013C012D853E854F855889C701B601B6
:10083000DBD39B01AC01C301B201C9D12B013C0147
:10084000A5019401C701B601CFD36B017C012D85B1
:100850003E854F8558896F81788589859A85C4D36F
:100860009B01AC01C701B601B3D16B017C01EB8DDB
:10087000FC8D43E0EE0FFF1F4A95E1F729893A8985
:10088000E20FF31FF887EF839B01AC016481758150
:10089000868197819CD14B015C01A3019201AF81BC
:1008A000B8856D917D918D919C9191D1F801608376
:1008B00071838283938384829582A682B782EF813B
:1008C000F8852481358146815781C701B60180D1E1
:1008D0006B017C01A3019201AF81B8856D917D917F
:1008E0008D919C9175D1EF81F885608371838283AE
:1008F0009383C482D582E682F782BFEF2B1A3B0A2C
:10090000EB81FC813196FC83EB8322CF880F991F0A
:100910009A838983AD81BE811196BE83AD83FACE61
:100920006C96E2E125C1A0ECB1E0E8E9F4E008C191
:100930001092210110922001CE018F579E4F7C0111
:1009400000E010E065E070E0C801F3DCF70181939E
:1009500091937F010F5F1F4F0032110599F77E01C0
:10096000F1E0EF0EFF1E00E010E05701B801012E8C
:10097000000C880B990B2ED22BED3FE049EC50E494
:1009800033D320E030E040E05DE32ED385D120E09A
:1009900030E040E05FE328D39B01AC0160E070E011
:1009A00080E09FE314D1F701619371938193919358
:1009B0007F010F5F1F4F00321105C1F684B18862BD
:1009C00084B980917A00856080937A0080917A0062
:1009D000806880937A0080917C00807F80937C0087
:1009E000229A2A98569A8EDB8091810088608093A3
:1009F00081008091810084608093810080916F00EC
:100A0000826080936F0088E391E0909389008093E7
:100A1000880084B5826084BD85B5846085BD809181
:100A20006E00826080936E008EE187BD7894CE0167
:100A300001967C01FE01EF57FE4F4F016C01F894C7
:100A400080917A00806480937A0080917A0086FD9C
:100A5000FCCF6091780080917900F40101911191AF
:100A60004F01380133E0660C771C3A95E1F76C0CC6
:100A70007D1C70E0782B7250072E000C880B990BB0
:100A8000A9D1000F111F000F111FF501E00FF11F79
:100A90002081318142815381A7D2F3016083718328
:100AA00082839383F70114821582168217827894C9
:100AB000F8E0EF0EF11CAE14BF0409F0C0CF45E022
:100AC00050E060E270E0C6010EDE00E010E0F801E8
:100AD00083E0EE0FFF1F8A95E1F7EC0DFD1D2081ED
:100AE000318142815381648175818681978173DD73
:100AF000F801EE0FFF1FEE0FFF1FEE5BFE4F60834E
:100B00007183828393830F5F1F4F00311105F9F6C4
:100B10008ECF97FB072E16F4009406D077FD08D0F1
:100B200042D007FC05D03EF4909581959F4F0895E3
:100B3000709561957F4F08952F923F924F925F92EB
:100B40006F927F928F929F92AF92BF92CF92DF92DD
:100B5000EF92FF920F931F93CF93DF93CDB7DEB742
:100B6000CA1BDB0B0FB6F894DEBF0FBECDBF0994D6
:100B70002A88398848885F846E847D848C849B842D
:100B8000AA84B984C884DF80EE80FD800C811B813B
:100B9000AA81B981CE0FD11D0FB6F894DEBF0FBE6A
:100BA000CDBFED010895AA1BBB1B51E107C0AA1FD1
:100BB000BB1FA617B70710F0A61BB70B881F991FFE
:100BC0005A95A9F780959095BC01CD01089550588C
:100BD000BB27AA270ED078C141D130F046D120F0F2
:100BE00031F49F3F11F41EF436C10EF4E095E7FB9B
:100BF0002CC1E92F8BD180F3BA17620773078407E2
:100C0000950718F071F49EF5A3C10EF4E0950B2E34
:100C1000BA2FA02D0B01B90190010C01CA01A0014E
:100C20001124FF27591B99F0593F50F4503E68F1A9
:100C30001A16F040A22F232F342F4427585FF3CFEA
:100C4000469537952795A795F0405395C9F77EF4BB
:100C50001F16BA0B620B730B840BBAF09150A1F004
:100C6000FF0FBB1F661F771F881FC2F70EC0BA0F8A
:100C7000621F731F841F48F4879577956795B79512
:100C8000F7959E3F08F0B3CF9395880F08F099270A
:100C9000EE0F979587950895F0D0E39526C10CD077
:100CA00013C1E3D040F0DAD030F021F45F3F19F007
:100CB000CCC051114EC1CFC029D198F39923C9F3AB
:100CC0005523B1F3951B550BBB27AA276217730752
:100CD000840738F09F5F5F4F220F331F441FAA1F06
:100CE000A9F333D00E2E3AF0E0E830D091505040C6
:100CF000E695001CCAF729D0FE2F27D0660F771F74
:100D0000881FBB1F261737074807AB07B0E809F055
:100D1000BB0B802DBF01FF2793585F4F2AF09E3FEA
:100D2000510568F092C015C15F3FECF3983EDCF3CB
:100D3000869577956795B795F7959F5FC9F7880F63
:100D4000911D9695879597F90895E1E0660F771FB5
:100D5000881FBB1F621773078407BA0720F0621B46
:100D6000730B840BBA0BEE1F88F7E095089504D03F
:100D70006894B111EEC00895D1D088F09F5790F0DB
:100D8000B92F9927B751A0F0D1F0660F771F881FB0
:100D9000991F1AF0BA95C9F712C0B13081F0D8D0B6
:100DA000B1E00895D5C0672F782F8827B85F39F054
:100DB000B93FCCF3869577956795B395D9F73EF40F
:100DC00090958095709561957F4F8F4F9F4F0895B7
:100DD000E89409C097FB3EF49095809570956195D5
:100DE0007F4F8F4F9F4F9923A9F0F92F96E9BB278B
:100DF0009395F695879577956795B795F111F8CF07
:100E0000FAF4BB0F11F460FF1BC06F5F7F4F8F4F71
:100E10009F4F16C0882311F096E911C0772321F067
:100E20009EE8872F762F05C0662371F096E8862FFF
:100E300070E060E02AF09A95660F771F881FDAF756
:100E4000880F9695879597F9089597F99F6780E899
:100E500070E060E008959FEF80EC089500240A940C
:100E60001616170618060906089500240A94121685
:100E70001306140605060895EECF50D0E8F3E89463
:100E8000E0E0BB279F57F0F02AED3FE049EC06C0B9
:100E9000EE0FBB0F661F771F881F28F0B23A62075C
:100EA0007307840728F0B25A620B730B840BE39527
:100EB0009A9572F7803830F49A95BB0F661F771FAA
:100EC000881FD2F7904878C1092E0394000C11F4C2
:100ED000882352F0BB0F40F4BF2B11F460FF04C015
:100EE0006F5F7F4F8F4F9F4F0895EF93E0FF06C0D6
:100EF000A2EA2AED3FE049EC5FEB7BDEE5DF0F90F5
:100F0000039401FC9058E8E6F0E08EC157FD90583C
:100F1000440F551F59F05F3F71F04795880F97FBBD
:100F2000991F61F09F3F79F0879508951216130677
:100F30001406551FF2CF4695F1DF08C016161706A6
:100F40001806991FF1CF86957105610508940895DB
:100F5000E894BB2766277727CB0197F908950EF011
:100F600029C179CF689471CFD9DFC8F39923D1F320
:100F7000C6F3DF93CF931F930F93FF92C92FDD2703
:100F800088232AF02197660F771F881FDAF720E061
:100F900030E040E85FEB9FE3883920F0803E30F09E
:100FA00021968F7715DEE6E8F0E003C011DEE3EB73
:100FB000F0E015D18B01BE01EC01FB2E6F577109DA
:100FC0007595771F880B990B05DF28E132E741E320
:100FD0005FE316D0AF2D9801AE01FF900F911F91E6
:100FE000CF91DF9106DE70CF0BD06ECF37DF28F0C8
:100FF0003CDF18F0952309F028CF2DCF1124A9CF7D
:1010000085DFA0F3959FD1F3950F50E0551F629FA8
:10101000F001729FBB27F00DB11D639FAA27F00D51
:10102000B11DAA1F649F6627B00DA11D661F829F78
:101030002227B00DA11D621F739FB00DA11D621F5D
:10104000839FA00D611D221F749F3327A00D611D7A
:10105000231F849F600D211D822F762F6A2F11245C
:101060009F5750408AF0E1F088234AF0EE0FFF1FAF
:10107000BB1F661F771F881F91505040A9F79E3FE6
:10108000510570F0E2CE65CF5F3FECF3983EDCF3A4
:10109000869577956795B795F795E7959F5FC1F723
:1010A000FE2B880F911D9695879597F9089536DF49
:1010B000E0F09E37D8F09639B8F49E3848F4672FA0
:1010C000782F8827985FF9CF8695779567959395C0
:1010D0009539D0F3B62FB1706B0F711D811D20F4BF
:1010E00087957795679593954AC064C032CF9F9353
:1010F000C4DE0F9007FCEE5FF8CE11F40EF4ABCE19
:1011000059C00CDFD0F39923D9F3CEF39F57550B79
:1011100087FF5ED00024A0E640EA900180585695F3
:10112000979528F4805C660F771F881F20F026179C
:101130003707480730F4621B730B840B20293129D1
:101140004A2BA69517940794202531254A2758F74E
:10115000660F771F881F20F026173707480730F4DF
:10116000620B730B840B200D311D411DA09581F77F
:10117000B901842F9158880F9695879508958823F3
:1011800071F4772321F09850872B762F07C06623C0
:1011900011F499270DC09051862B70E060E02AF081
:1011A0009A95660F771F881FDAF7880F96958795AF
:1011B00097F908959F3F31F0915020F487957795E6
:1011C0006795B795880F911D9695879597F908951E
:1011D00091505040660F771F881FD2F70895DF9314
:1011E000CF931F930F93FF92EF92DF927B018C01BD
:1011F000689405C0DA2EEF0103DFFE01E894A591A3
:101200002591359145915591AEF3EF01F2DCFE0148
:101210009701A801DA9479F7DF90EF90FF900F9192
:101220001F91CF91DF9108959F938F937F936F9339
:10123000FF93EF939B01AC01D7DEEF91FF91CFDFDE
:0E1240002F913F914F915F91CFCEF894FFCF49
:00000001FF
