:1000000033C0000039C0000037C0000035C0000018
:1000100033C0000031C000002FC000002DC0000020
:100020002BC0000029C0000027C0000025C0000030
:1000300023C0000021C000001FC000001DC0000040
:100040001BC0000019C0000017C0000015C0000050
:1000500013C0000011C000000FC000000DC0000060
:100060000BC0000009C0000011241FBECFEFD8E074
:10007000DEBFCDBF35D03EC0C3CF80E58CBD089577
:100080008EBD0DB407FEFDCF089529988FE99FE03E
:100090000197F1F700C00000299A9FEF23EC89E057
:1000A000915020408040E1F700C0000008952A9858
:1000B0008EBD0DB407FEFDCF2A9A0895E6DF81E1DB
:1000C000F6DF2FEF82E597E0215080409040E1F786
:1000D00000C000008AE3EBDF85E0D2DF89E2E7CFF2
:1000E00084B18E6284B9299880E58CBDE7DF80E019
:0800F00090E00895F894FFCFA1
:00000001FF
