:1000000042C0000048C0000046C0000044C00000DC
:1000100042C0000040C000003EC000003CC00000E4
:100020003AC0000038C0000036C0000034C00000F4
:1000300032C0000030C000002EC000002CC0000004
:100040002AC0000028C0000026C0000024C0000014
:1000500022C0000020C000001EC000001CC0000024
:100060001AC0000018C0000005A84CCDB2D44EB98B
:100070003836A9020C50B9918688083CA6AAAA2A4B
:10008000BE000000803F11241FBECFEFD8E0DEBFCE
:10009000CDBF8AD0DBC2B4CF80E58CBD08958EBDC4
:1000A0000DB407FEFDCF08959EBD0DB407FEFDCF34
:1000B0008EBD0DB407FEFDCF089529988FE99FE00E
:1000C0000197F1F700C00000299A9FEF23EC89E027
:1000D000915020408040E1F700C0000008952A9828
:1000E0008EBD0DB407FEFDCF2A9A0895E6DF81E1AB
:1000F000F6DF2FEF82E597E0215080409040E1F756
:1001000000C000008AE3EBDF85E0C9DF89E2E7CFCA
:100110000F931F93CF93DF93082FD62F142FC22F47
:100120008AE2DDDF802F90E0BFDF812F90E0BCDF2F
:100130008BE2D5DF8D2F90E0B7DF8C2F90E0B4DF1E
:10014000DF91CF911F910F9108956115710559F0BD
:100150009EBD0DB407FEFDCF8EBD0DB407FEFDCFD5
:1001600061507109F2CF0895CF93DF93EA01262FF2
:10017000482FCEDF8CE2B3DF61E070E0CE01E5DF37
:10018000DF91CF910895CF93DF93EC012FE74FE9F3
:1001900060E080E0BDDF8CE2A2DF60E070E5CE01D0
:1001A000D4DFDF91CF91089584B18E6284B929980C
:1001B00080E58CBD9BDF86E392DF80E670DF80E028
:1001C00090E0E1DFE12CF12CC0E0D0E047010F2C02
:1001D000000CAA08BB08BE010D2E000C880B990B61
:1001E000C3D02CE739ED40E25DE34AD12B013C015D
:1001F000C501B401B9D09B01AC01C301B2011DD04E
:10020000A2D120E030E040E251E43AD17AD08B0133
:10021000005C1F4F4FEF5FEF602F8C2FA5DF40E09A
:1002200050E0602F8C2FA0DF2196CF39D10599F6B1
:100230008FEFE81AF80AC8CF5058BB27AA270ED06C
:10024000E5C0D6D030F0DBD020F031F49F3F11F480
:100250001EF4CBC00EF4E095E7FBC1C0E92FE7D058
:1002600080F3BA17620773078407950718F071F4D3
:100270009EF5FFC00EF4E0950B2EBA2FA02D0B01BA
:10028000B90190010C01CA01A0011124FF27591BDB
:1002900099F0593F50F4503E68F11A16F040A22FE1
:1002A000232F342F4427585FF3CF46953795279552
:1002B000A795F0405395C9F77EF41F16BA0B620B51
:1002C000730B840BBAF09150A1F0FF0FBB1F661F98
:1002D000771F881FC2F70EC0BA0F621F731F841FDB
:1002E00048F4879577956795B795F7959E3F08F001
:1002F000B3CF9395880F08F09927EE0F97958795C0
:10030000089504D06894B111B5C0089598D088F0CC
:100310009F5790F0B92F9927B751A0F0D1F0660FF1
:10032000771F881F991F1AF0BA95C9F712C0B1300C
:1003300081F09FD0B1E008959CC0672F782F882767
:10034000B85F39F0B93FCCF3869577956795B3954B
:10035000D9F73EF490958095709561957F4F8F4FBA
:100360009F4F0895E89409C097FB3EF490958095BF
:10037000709561957F4F8F4F9F4F9923A9F0F92F6B
:1003800096E9BB279395F695879577956795B795E9
:10039000F111F8CFFAF4BB0F11F460FF1BC06F5FCF
:1003A0007F4F8F4F9F4F16C0882311F096E911C0E1
:1003B000772321F09EE8872F762F05C0662371F002
:1003C00096E8862F70E060E02AF09A95660F771F16
:1003D000881FDAF7880F9695879597F9089597F90A
:1003E0009F6780E870E060E008959FEF80EC0895DB
:1003F00000240A9416161706180609060895002404
:100400000A9412161306140605060895092E03947D
:10041000000C11F4882352F0BB0F40F4BF2B11F4F1
:1004200060FF04C06F5F7F4F8F4F9F4F089557FD50
:100430009058440F551F59F05F3F71F04795880F52
:1004400097FB991F61F09F3F79F0879508951216E9
:1004500013061406551FF2CF4695F1DF08C0161695
:1004600017061806991FF1CF869571056105089446
:100470000895E894BB2766277727CB0197F908955D
:100480000BD0C4CFB5DF28F0BADF18F0952309F000
:10049000A6CFABCF1124EECFCADFA0F3959FD1F347
:1004A000950F50E0551F629FF001729FBB27F00D22
:1004B000B11D639FAA27F00DB11DAA1F649F662777
:1004C000B00DA11D661F829F2227B00DA11D621FC6
:1004D000739FB00DA11D621F839FA00D611D221F80
:1004E000749F3327A00D611D231F849F600D211D64
:1004F000822F762F6A2F11249F5750408AF0E1F007
:1005000088234AF0EE0FFF1FBB1F661F771F881F4F
:1005100091505040A9F79E3F510570F060CFAACF8F
:100520005F3FECF3983EDCF3869577956795B7953A
:10053000F795E7959F5FC1F7FE2B880F911D969564
:10054000879597F908959F9305D00F9007FCEE5F6C
:1005500028C04BCF74DFE8F3E894E0E0BB279F5757
:10056000F0F02AED3FE049EC06C0EE0FBB0F661F2E
:10057000771F881F28F0B23A62077307840728F0B4
:10058000B25A620B730B840BE3959A9572F780381D
:1005900030F49A95BB0F661F771F881FD2F79048DB
:1005A00013C0EF93E0FF06C0A2EA2AED3FE049EC5A
:1005B0005FEB54DE2BDF0F90039401FC9058E8E6CC
:1005C000F0E00EC09F3F31F0915020F48795779571
:1005D0006795B795880F911D9695879597F908951A
:1005E0009F938F937F936F93FF93EF939B01AC0146
:1005F00047DFEF91FF9105D02F913F914F915F9190
:100600003FCFDF93CF931F930F93FF92EF92DF9231
:100610007B018C01689405C0DA2EEF013DDFFE01FD
:10062000E894A5912591359145915591AEF3EF014F
:1006300015DEFE019701A801DA9479F7DF90EF90BB
:10064000FF900F911F91CF91DF910895F894FFCF04
:00000001FF
