S00C0000627275682E7372656367
S11300000C9434000C9451000C9451000C94510045
S11300100C9451000C9451000C9451000C943F0228
S11300200C9451000C9451000C9451000C94320324
S11300300C9451000C9451000C9451000C945100F8
S11300400C9451000C9451000C9451000C945100E8
S11300500C9451000C9451000C9451000C945100D8
S11300600C9451000C94510011241FBECFEFD8E022
S1130070DEBFCDBF14E0A0E0B1E0EAECFEE002C0D8
S113008005900D92A833B107D9F726E0A8E3B4E0B0
S113009001C01D92A635B207E1F70E94A1030C949A
S11300A063070C9400004F925F926F927F928F923D
S11300B09F92AF92BF92CF92DF92EF92FF92CF9333
S11300C0DF93CDB7DEB728970FB6F894DEBF0FBE27
S11300D0CDBF29833A834B835C836D837E838F8377
S11300E0988789809A80AB80BC80CD80DE80EF8049
S11300F0F884A5019401C501B4010E9473064B0163
S11301005C01A7019601C701B6010E9473069B0119
S1130110AC01C501B4010E941C050E94E6062896A4
S11301200FB6F894DEBF0FBECDBFDF91CF91FF9025
S1130130EF90DF90CF90BF90AF909F908F907F9083
S11301406F905F904F9008952F923F924F925F92DD
S11301506F927F928F929F92AF92BF92CF92DF92D3
S1130160EF92FF920F931F93CF93DF93CDB7DEB738
S113017068970FB6F894DEBF0FBECDBF9E8B8D8BF4
S113018026E030E03C8B2B8B1A8A198A6624639410
S1130190712CF0C06414750421F4E60CF71C412C96
S11301A0512C89899A89840D951D880F991F880F70
S11301B0991FFC01E45CFC4F208131814281538111
S11301C029833A834B835C83FC01E05CFD4F808090
S11301D09180A280B380A701420D531D588F4F8B8D
S11301E08A01060D171D000F111F000F111F000FAC
S11301F0111F0C0D1D1DD8018D919D910D90BC9169
S1130200A02D8D879E87AF87B88BD80114962D912A
S11302103D914D915C91179729873A874B875C876D
S11302202D853E854F85588969817A818B819C8192
S11302300E9473066D837E838F83988729853A8510
S11302404B855C85C501B4010E9473069B01AC011A
S11302506D817E818F8198850E941B056D837E83CD
S11302608F8398872D853E854F855889C501B401B4
S11302700E9473064B015C0129853A854B855C8598
S113028069817A818B819C810E9473069B01AC01F8
S1130290C501B4010E941C0569837A838B839C8306
S11302A0EF89F88DEE0FFF1FEE0FFF1FEE0FFF1FFC
S11302B0EC0DFD1DFA87E9879B01AC016481758112
S11302C0868197810E941B054B015C012D813E8133
S11302D04F815885A985BA856D917D918D919C91A9
S11302E00E941B05F8016083718382839383848257
S11302F09582A682B782E985FA8524813581468173
S1130300578169817A818B819C810E941C054B01F4
S11303105C012D813E814F815885A985BA856D91F7
S11303207D918D919C910E941C05E985FA856083DD
S113033071838283938384829582A682B782BFEF7E
S11303404B1A5B0AEFEF2E1A3E0AF0E22F16310425
S113035009F020CF29893A89260D371D3A8B298B3C
S1130360660C771C4B895C89415051095C8B4B8B23
S1130370452B49F0212C312CE12CF12C412C512C12
S1130380CD88DE8807CF68960FB6F894DEBF0FBE1F
S1130390CDBFDF91CF911F910F91FF90EF90DF9030
S11303A0CF90BF90AF909F908F907F906F905F9011
S11303B04F903F902F90089588E98093C10086E084
S11303C08093C2001092C50087E68093C40008950C
S11303D08CB580618CBD8DB581608DBD8CB580641C
S11303E08CBD08955E988EBD0DB407FEFDCF7EBD15
S11303F00DB407FEFDCF6EBD0DB407FEFDCF5E9AB2
S1130400089510928000E1E8F0E0108210928500D7
S11304101092840088E190E0909389008093880092
S1130420808188608083808183608083EFE6F0E050
S11304308081826080830895A0EBB0E01C92E1EBA0
S1130440F0E010821092B20080E38093B3008C91AC
S113045082608C93808183608083E0E7F0E0808118
S1130460826080830895E0E7F0E080818D7F80835F
S11304700895E0E7F0E080818260808308951F9210
S11304800F920FB60F9211242F933F934F935F93C4
S11304906F937F938F939F93AF93BF93CF93DF9388
S11304A0EF93FF9380913904811173C080913E04CE
S11304B090913F04019679F4EAE7F0E0808180644A
S11304C0808380913E0490913F04019690933F0471
S11304D080933E045EC080913E0490913F04CF9788
S11304E059F5E0913E04F0913F04E050FF4FC08184
S11304F0D0E06091790070E060587109072E000C1B
S1130500880B990B0E94BE05CC0FDD1FCC0FDD1F9D
S1130510CC0FDD1FCA5ADB4F688379838A839B83A0
S113052081E0809339040E9433028FEF9FEF909310
S11305303F0480933E042DC0E0913E04F0913F04BB
S1130540E050FF4FC081D0E06091790070E06058C6
S11305507109072E000C880B990B0E94BE05CC0F65
S1130560DD1FCC0FDD1FCC0FDD1FCA5ADB4F6883A4
S113057079838A839B83EAE7F0E0808180648083C7
S113058080913E0490913F04019690933F048093A0
S11305903E04FF91EF91DF91CF91BF91AF919F9175
S11305A08F917F916F915F914F913F912F910F9018
S11305B00FBE0F901F901895CF9320914004309157
S11305C041042817390708F44BC05A985B981092D5
S11305D0410410924004C0913804C11110C05B9AC8
S11305E0C0913804EC2FF0E0EC5BFB4F60E070E06E
S11305F080810E94F201CF5FC093380431C0C231C0
S113060041F46FEF70E080E00E94F2011092380430
S113061027C0C13181F45A9AC0913804EC2FF0E01C
S1130620EC5BFB4F60E070E080810E94F201CF5FE1
S1130630C093380415C08C2F90E09C0121503109DF
S113064061E070E002C0660F771F2A95E2F7FC01B3
S1130650EC5BFB4F80810E94F201CF5FC0933804B2
S1130660CF9108951F920F920FB60F9211242F93DA
S11306703F934F935F936F937F938F939F93AF9326
S1130680BF93EF93FF9380914004909141040196AE
S1130690909341048093400480913A0490913B04E8
S11306A0A0913C04B0913D040196A11DB11D80931D
S11306B03A0490933B04A0933C04B0933D0481E03E
S11306C090E00E94DC02FF91EF91BF91AF919F9166
S11306D08F917F916F915F914F913F912F910F90E7
S11306E00FBE0F901F901895AAE7B0E08C91856813
S11306F08C93ECE7F0E080819081807F892B80836C
S11307008081806280838C9180648C93EAE7F0E03E
S1130710808186FDFDCF0895DC015296E4E4F4E087
S113072046E554E081E090E09C010E9002C0220F67
S1130730331F0A94E2F721502193E417F507A1F738
S11307400895CF93DF93CDB7DEB7C455D1090FB663
S1130750F894DEBF0FBECDBF8FEF9FEF90933F04A1
S113076080933E0484B1886284B9229A2A98569A66
S11307708AB18C608AB90E94E8010E9474030E94C5
S1130780DC0178948FE99FE00197F1F700C0000045
S11307900E9401020E941C02DE01AF5BBF4F6596FE
S11307A0BFAFAEAF65971E01B1E22B0E311C809135
S11307B039048130E1F70F2EF0E0EF2EF1E0FF2E47
S11307C0F02DC12CD12CD701ED917D018601000FB4
S11307D0111F000F111F000F111F0A5A1B4FD801C0
S11307E06D917D918D919C91F0E0EE0FFF1FEE0FC6
S11307F0FF1FE05CFE4F20813181428153810E94C2
S11308007306F80160837183828393831482158253
S113081016821782BFEFCB1ADB0AE0E4CE16D104AE
S113082091F686E594E00E94A4003E01F2E26F0E88
S1130830711C2E0182E0480E511CCC24C394D12C8F
S1130840F601EE0FFF1FEE0FFF1FEE0FFF1FEA5A18
S1130850FB4F20813181428153816481758186817E
S113086097810E94530020E030E040E05FE30E9463
S11308707306162F072FF82EE92E20E030E040E40F
S113088050E40E94880588234CF410E000E068944A
S1130890FF24F7F80F2EFFE3EF2EF02DD3016C9118
S11308A070E080E090E00E94BE054B015C019B017A
S11308B0AC01612F702F8F2D9E2D0E946E0618168D
S11308C05CF4612F702F8F2D9E2D0E948D05F301F6
S11308D06083D2016C9322C0F2018081D3018C9396
S11308E02DEC3CEC4CE45FE3C501B4010E947306BB
S11308F04B015C012CEC3CEC4CE45EE3612F702F6B
S11309008F2D9E2D0E9473069B01AC01C501B4017D
S11309100E941C050E948D05F2016083FFEFCF1A2F
S1130920DF0A8FEF681A780A9FEF491A590AA0E282
S1130930CA16D10409F084CF2A818B8190E0820FFA
S1130940911D2C81820F911D2D81820F911D2E816D
S1130950820F911D6AE070E00E943B0722966FAF00
S113096022972F81888590E0820F911D2985820F1F
S1130970911D63E070E00E943B0723966FAF2397BD
S11309802A858B8590E0820F911D2C85820F911D05
S113099063E070E00E943B0724966FAF24972D8597
S11309A08E8590E0820F911D9595879525968FAF42
S11309B025972F85888990E0820F911D95958795BD
S11309C026968FAF269729898A8990E0820F911DF8
S11309D09595879527968FAF27972B898C8990E0DB
S11309E0820F911D9595879528968FAF28972D890D
S11309F08E8990E0820F911D9595879529968FAFEA
S1130A002997FE017796A1E4B0E0AC0FBD1F1896BC
S1130A1081918D932E163F06D9F7BFEF6396BFAF32
S1130A206397CE018F5B9F4F0E948C031092390411
S1130A300E943902BCCE5058BB27AA270E94330516
S1130A400C9434060E94260638F00E942D0620F0ED
S1130A5039F49F3F19F426F40C9423060EF4E09520
S1130A60E7FB0C941D06E92F0E94450658F3BA17BC
S1130A70620773078407950720F079F4A6F50C94B0
S1130A8067060EF4E0950B2EBA2FA02D0B01B901C9
S1130A9090010C01CA01A0011124FF27591B99F0F0
S1130AA0593F50F4503E68F11A16F040A22F232FFC
S1130AB0342F4427585FF3CF469537952795A7954C
S1130AC0F0405395C9F77EF41F16BA0B620B730BF3
S1130AD0840BBAF09150A1F0FF0FBB1F661F771F64
S1130AE0881FC2F70EC0BA0F621F731F841F48F419
S1130AF0879577956795B795F7959E3F08F0B0CFA2
S1130B009395880F08F09927EE0F97958795089588
S1130B100E94F90508F481E008950E944D0688F0CA
S1130B209F5798F0B92F9927B751B0F0E1F0660FAD
S1130B30771F881F991F1AF0BA95C9F714C0B130EE
S1130B4091F00E946706B1E008950C946706672F40
S1130B50782F8827B85F39F0B93FCCF3869577951D
S1130B606795B395D9F73EF4909580957095619506
S1130B707F4F8F4F9F4F0895E89409C097FB3EF431
S1130B8090958095709561957F4F8F4F9F4F9923D6
S1130B90A9F0F92F96E9BB279395F6958795779554
S1130BA06795B795F111F8CFFAF4BB0F11F460FF14
S1130BB01BC06F5F7F4F8F4F9F4F16C0882311F06C
S1130BC096E911C0772321F09EE8872F762F05C080
S1130BD0662371F096E8862F70E060E02AF09A951B
S1130BE0660F771F881FDAF7880F9695879597F910
S1130BF00895990F0008550FAA0BE0E8FEEF1616AA
S1130C001706E807F907C0F012161306E407F507FC
S1130C1098F0621B730B840B950B39F40A2661F070
S1130C20232B242B252B21F408950A2609F4A14013
S1130C30A6958FEF811D811D089597F99F6780E820
S1130C4070E060E008959FEF80EC089500240A941A
S1130C501616170618060906089500240A94121693
S1130C601306140605060895092E0394000C11F4C6
S1130C70882352F0BB0F40F4BF2B11F460FF04C073
S1130C806F5F7F4F8F4F9F4F089557FD9058440FCC
S1130C90551F59F05F3F71F04795880F97FB991FD7
S1130CA061F09F3F79F08795089512161306140694
S1130CB0551FF2CF4695F1DF08C016161706180621
S1130CC0991FF1CF86957105610508940895E894FC
S1130CD0BB2766277727CB0197F908950E94F9056A
S1130CE008F48FEF08950E9486060C9434060E943F
S1130CF0260638F00E942D0620F0952311F00C945E
S1130D001D060C94230611240C9468060E944506C3
S1130D1070F3959FC1F3950F50E0551F629FF0014A
S1130D20729FBB27F00DB11D639FAA27F00DB11D63
S1130D30AA1F649F6627B00DA11D661F829F2227EC
S1130D40B00DA11D621F739FB00DA11D621F839F73
S1130D50A00D611D221F749F3327A00D611D231F49
S1130D60849F600D211D822F762F6A2F11249F5797
S1130D7050409AF0F1F088234AF0EE0FFF1FBB1F9A
S1130D80661F771F881F91505040A9F79E3F510559
S1130D9080F00C941D060C9468065F3FE4F3983EC3
S1130DA0D4F3869577956795B795F795E7959F5F03
S1130DB0C1F7FE2B880F911D9695879597F9089595
S1130DC019F416F40C9423060C9426070E944D067D
S1130DD0B8F39923C9F3B6F39F57550B87FF0E94C5
S1130DE034070024A0E640EA900180585695979570
S1130DF028F4805C660F771F881F20F026173707BA
S1130E00480730F4621B730B840B202931294A2BC9
S1130E10A69517940794202531254A2758F7660F7D
S1130E20771F881F20F026173707480730F4620B16
S1130E30730B840B200D311D411DA09581F7B90161
S1130E40842F9158880F9695879508959F3F31F088
S1130E50915020F4879577956795B795880F911DE4
S1130E609695879597F9089591505040660F771F8E
S1130E70881FD2F7089597FB072E16F4009407D025
S1130E8077FD09D00E944F0707FC05D03EF49095EA
S1130E9081959F4F0895709561957F4F0895AA1B82
S1130EA0BB1B51E107C0AA1FBB1FA617B70710F051
S1130EB0A61BB70B881F991F5A95A9F78095909583
S10D0EC0BC01CD010895F894FFCFA2
S1130ECA0020103008281838042414340C2C1C3C34
S1130EDA022212320A2A1A3A062616360E2E1E3E04
S1130EEA0121113109291939052515350D2D1D3D04
S1130EFA032313330B2B1B3B072717370F2F1F3FD4
S1130F0A000000007FC91D3B30681D3C435FB03CB4
S1130F1A03E51B3D4CD3713D3C93AC3D1170E83D58
S1130F2A34F6153EB6303B3E548C633E9752873EA8
S1130F3A6C089E3EF3AFB53E950ECE3E4BE8E63EB8
S1130F4A0000003FDB8B0C3FB6F8183F0728253F0B
S1130F5ACAFB303FB4563C3FEB1C473FD333513FA7
S1130F6A73825A3FFEF1623F9C6D6A3FD2E2703F40
S1130F7AB341763F037D7A3F658A7D3F30627F3F86
S1130F8A0000803F30627F3F658A7D3F037D7A3F60
S1130F9AB341763FD2E2703F9C6D6A3FFEF1623FF5
S1130FAA73825A3FD333513FEB1C473FB4563C3FFD
S1130FBACAFB303F0728253FB6F8183FDB8B0C3FA6
S1130FCA0000003F4BE8E63E950ECE3EF3AFB53E39
S1130FDA6C089E3E9752873E548C633EB6303B3E25
S1130FEA34F6153E1170E83D3C93AC3D4CD3713D4B
S1130FFA03E51B3D435FB03C30681D3C7FC91D3B84
S113100A0000000000000000000080BF0000000093
S113101AF70435BF000080BFF70435BF00000000A5
S113102A07EFC3BEF70435BF66836CBF000080BFF9
S113103A66836CBFF70435BF07EFC3BE0000000028
S113104AACC547BE07EFC3BED6390EBFF70435BFDA
S113105A38DB54BF66836CBFBA147BBF000080BF01
S113106ABA147BBF66836CBF38DB54BFF70435BF41
S113107AD6390EBF07EFC3BEACC547BE0000000099
S113108A30BDC8BDACC547BE3CA094BE07EFC3BEC5
S113109AF35AF1BED6390EBF946722BFF70435BF9F
S11310AAFCE345BF38DB54BF93C561BF66836CBF9D
S11310BA05FA74BFBA147BBF72C47EBF000080BF36
S11310CA72C47EBFBA147BBF05FA74BF66836CBF51
S11310DA93C561BF38DB54BFFCE345BFF70435BF92
S11310EA946722BFD6390EBFF35AF1BE07EFC3BEC7
S11310FA3CA094BEACC547BE30BDC8BD0000803F0D
S113110A0000803F000000000000803FF704353FE4
S113111A00000000F70435BF0000803F66836C3F7F
S113112AF704353F07EFC33E0000000007EFC3BED4
S113113AF70435BF66836CBF0000803FBA147B3F57
S113114A66836C3F38DB543FF704353FD6390E3F8C
S113115A07EFC33EACC5473E00000000ACC547BE1E
S113116A07EFC3BED6390EBFF70435BF38DB54BF09
S113117A66836CBFBA147BBF0000803F72C47E3F93
S113118ABA147B3F05FA743F66836C3F93C5613F8B
S113119A38DB543FFCE3453FF704353F9467223F6D
S11311AAD6390E3FF35AF13E07EFC33E3CA0943EB4
S11311BAACC5473E30BDC83D0000000030BDC8BDC7
S11311CAACC547BE3CA094BE07EFC3BEF35AF1BEFA
S11311DAD6390EBF946722BFF70435BFFCE345BF77
S11311EA38DB54BF93C561BF66836CBF05FA74BF0D
S10B11FABA147BBF72C47EBF6E
S9030000FC
