:100000000C9434000C9451000C9451000C94510049
:100010000C9451000C9451000C9451000C947D02EE
:100020000C9451000C9451000C9451000C94460314
:100030000C9451000C9451000C9451000C945100FC
:100040000C9451000C9451000C9451000C945100EC
:100050000C9451000C9451000C9451000C945100DC
:100060000C9451000C94510011241FBECFEFD8E026
:10007000DEBFCDBF12E0A0E0B1E0E4E7FDE002C0EA
:1000800005900D92A839B107D9F723E0A8E9B2E0AD
:1000900001C01D92A23CB207E1F70E94C8030C9474
:1000A000B8060C9400004F925F926F927F928F92ED
:1000B0009F92AF92BF92CF92DF92EF92FF92CF9337
:1000C000DF93CDB7DEB728970FB6F894DEBF0FBE2B
:1000D000CDBF29833A834B835C836D837E838F837B
:1000E000988789809A80AB80BC80CD80DE80EF804D
:1000F000F884A5019401C501B4010E94F0054B01EB
:100100005C01A7019601C701B6010E94F0059B01A1
:10011000AC01C501B4010E949E040E9463062896AA
:100120000FB6F894DEBF0FBECDBFDF91CF91FF9029
:10013000EF90DF90CF90BF90AF909F908F907F9087
:100140006F905F904F9008952F923F924F925F92E1
:100150006F927F928F929F92AF92BF92CF92DF92D7
:10016000EF92FF920F931F93CF93DF93CDB7DEB73C
:1001700066970FB6F894DEBF0FBECDBF3C0125E0F9
:1001800030E03C8B2B8B1A8A198A44244394512CDF
:1001900031C14214530441F48F859889840D951D13
:1001A000988B8F87212C312C89899A89820D931DF8
:1001B00090939A0280939902880F991F880F991F34
:1001C000FC01E45EFD4F80809180A280B380AFE9A6
:1001D000B2E08D929D92AD92BC921397FC01E056D5
:1001E000FE4FC080D180E280F380C092A302D09203
:1001F000A402E092A502F092A602EF85F8892D8173
:100200003E81E20FF31FFE8BED8BF0939E02E09395
:100210009D028F01040D151D10939C0200939B02FB
:10022000000F111F000F111F000F111F060D171DCA
:10023000D8018D919D910D90BC91A02D8B879C87AD
:10024000AD87BE87D80114968D919D910D90BC917C
:10025000A02D8F839887A987BA872B853C854D85EC
:100260005E85C501B4010E94F00569837A838B83A2
:100270009C832F81388549855A85C701B6010E9424
:10028000F0059B01AC0169817A818B819C810E9480
:100290009D0469837A838B839C832B853C854D8564
:1002A0005E85C701B6010E94F0056B017C012F81BC
:1002B000388549855A85C501B4010E94F0059B0126
:1002C000AC01C701B6010E949E049B01AC0189816B
:1002D0009A81AB81BC81EFE9F2E080839183A283B4
:1002E000B3832093A3023093A4024093A5025093BA
:1002F000A6028D899E89880F991F880F991F880FE4
:10030000991F860D971D98878F83DC0114966D9138
:100310007D918D919C9117970E949D046B017C01AA
:1003200029813A814B815C81EF81F88560817181FF
:10033000828193810E949D04D8016D937D938D935A
:100340009C931397F801C482D582E682F7822091AC
:100350009D0230919E02220F331F220F331F220F66
:10036000331F260D371D3A832983D90114962D9109
:100370003D914D915C9117976091A3027091A402F9
:100380008091A5029091A6020E949E046B017C01BF
:10039000EFE9F2E02081318142815381A981BA8164
:1003A0006D917D918D919C910E949E04E981FA81CD
:1003B0006083718382839383C482D582E682F782CD
:1003C000BFEF2B1A3B0AED81FE813196FE83ED8350
:1003D000709709F0DECE29893A89240D351D3A8BB4
:1003E000298B440C551C8B899C8901979C8B8B8B8A
:1003F000892B39F01E821D82188A1F86212C312CF0
:10040000C8CE66960FB6F894DEBF0FBECDBFDF91A3
:10041000CF911F910F91FF90EF90DF90CF90BF9001
:10042000AF909F908F907F906F905F904F903F9094
:100430002F90089588E98093C10086E08093C200E0
:100440001092C50087E68093C40008958CB5806142
:100450008CBD8DB581608DBD8CB580648CBD0895DB
:100460005E988EBD0DB407FEFDCF7EBD0DB407FEB8
:10047000FDCF6EBD0DB407FEFDCF5E9A08951092BC
:100480008000E1E8F0E01082109285001092840074
:1004900088E190E090938900809388008081886053
:1004A0008083808183608083EFE6F0E080818260DA
:1004B00080830895A0EBB0E01C92E1EBF0E01082A5
:1004C0001092B20088E18093B3008C9182608C938B
:1004D000808183608083E0E7F0E0808182608083B8
:1004E0000895E0E7F0E080818D7F80830895E0E764
:1004F000F0E080818260808308951F920F920FB692
:100500000F9211242F933F934F935F936F937F9399
:100510008F939F93AF93BF93CF93DF93EF93FF930B
:100520008091A702811173C08091AC029091AD02BD
:10053000019679F4EAE7F0E080818064808380911D
:10054000AC029091AD0201969093AD028093AC0203
:100550005EC08091AC029091AD024F9759F5E09149
:10056000AC02F091AD02E050FF4FC081D0E060914D
:10057000790070E060587109072E000C880B990B08
:100580000E944005CC0FDD1FCC0FDD1FCC0FDD1FFF
:10059000CE53DD4F688379838A839B8381E0809388
:1005A000A7020E9471028FEF9FEF9093AD0280939C
:1005B000AC022DC0E091AC02F091AD02E050FF4FD3
:1005C000C081D0E06091790070E060587109072E19
:1005D000000C880B990B0E944005CC0FDD1FCC0F3F
:1005E000DD1FCC0FDD1FCE53DD4F688379838A83F7
:1005F0009B83EAE7F0E08081806480838091AC0295
:100600009091AD0201969093AD028093AC02FF9160
:10061000EF91DF91CF91BF91AF919F918F917F919A
:100620006F915F914F913F912F910F900FBE0F905F
:100630001F901895CF932091AE023091AF022817EA
:10064000390710F11092AF021092AE02C0919802D9
:10065000C03141F46FEF70E080E00E9430021092F0
:10066000980212C0EC2FF0E061E070E00C2E02C0A6
:10067000660F771F0A94E2F7EE54FD4F80810E94C7
:100680003002CF5FC0939802CF9108951F920F92CE
:100690000FB60F9211242F933F934F935F936F9355
:1006A0007F938F939F93AF93BF93EF93FF9380912B
:1006B000AE029091AF0201969093AF028093AE028A
:1006C0008091A8029091A902A091AA02B091AB02D8
:1006D0000196A11DB11D8093A8029093A902A09339
:1006E000AA02B093AB0281E090E00E941A03FF914E
:1006F000EF91BF91AF919F918F917F916F915F919A
:100700004F913F912F910F900FBE0F901F90189512
:10071000E2EBF2E09FEF978780E986878587848701
:10072000928781878087878380E88583848393830A
:10073000828381830895AAE7B0E08C9185688C93C9
:10074000ECE7F0E080819081807F892B808380813D
:10075000806280838C9180648C93EAE7F0E08081F2
:1007600086FDFDCF0895DC015096E2EBF2E042EC0D
:1007700052E081E090E09C010E9002C0220F331FF6
:100780000A94E2F721502193E417F507A1F70895A1
:10079000CF93DF93CDB7DEB7A0970FB6F894DEBF47
:1007A0000FBECDBF8FEF9FEF9093AD028093AC0251
:1007B00084B1886284B9229A2A98569A0E942602A5
:1007C0000E948803CE0101960E94B3030E949B03FE
:1007D0000E941A0278948FE99FE00197F1F700C018
:1007E00000000E943F020E945A02312C212C80916D
:1007F000A7028130E1F70F2EF0E0CF2EF1E0DF2EDF
:10080000F02DE12CF12CD601ED916D018701000F47
:10081000111F000F111F000F111F0E531D4FD80184
:100820006D917D918D919C91F0E0EE0FFF1FEE0F89
:10083000FF1FE05EFE4F20813181428153810E9483
:10084000F005F8016083718382839383148215829B
:1008500016821782BFEFEB1AFB0AE0E2EE16F104F4
:1008600091F682EC92E00E94A4003E01F2E16F0E4C
:10087000711C2E0182E0480E511C01E010E0F801CD
:10088000EE0FFF1FEE0FFF1FEE0FFF1FEE53FD4F8A
:100890002081318142815381648175818681978174
:1008A0000E945300C62ED72EE82EF92E20E030E00D
:1008B00040E050E40E940A05882324F4C32CD22C83
:1008C000E12CF12CD3016C9170E080E090E00E946B
:1008D00040052DEC3CEC4CE45FE30E94F0054B013D
:1008E0005C012CEC3CEC4CE45EE36C2D7D2D8E2DFC
:1008F0009F2D0E94F0059B01AC01C501B4010E942F
:100900009E04F2012081D3012D933D010E940F0529
:10091000F20161932F010F5F1F4F0031110509F0A4
:10092000AECF8A8186958A83CE0101960E94B30359
:100930001092A7020E9477025ACF5058BB27AA27CD
:100940000E94B5040C94B6050E94A80538F00E94D8
:10095000AF0520F039F49F3F19F426F40C94A50557
:100960000EF4E095E7FB0C949F05E92F0E94C70564
:1009700058F3BA17620773078407950720F079F4D4
:10098000A6F50C94E9050EF4E0950B2EBA2FA02DD8
:100990000B01B90190010C01CA01A0011124FF272C
:1009A000591B99F0593F50F4503E68F11A16F04027
:1009B000A22F232F342F4427585FF3CF4695379526
:1009C0002795A795F0405395C9F77EF41F16BA0BEB
:1009D000620B730B840BBAF09150A1F0FF0FBB1F99
:1009E000661F771F881FC2F70EC0BA0F621F731FE2
:1009F000841F48F4879577956795B795F7959E3F3F
:100A000008F0B0CF9395880F08F09927EE0F9795CF
:100A1000879508950E947B0508F481E008950E945F
:100A2000CF0588F09F5798F0B92F9927B751B0F0AC
:100A3000E1F0660F771F881F991F1AF0BA95C9F762
:100A400014C0B13091F00E94E905B1E008950C9412
:100A5000E905672F782F8827B85F39F0B93FCCF3C5
:100A6000869577956795B395D9F73EF490958095DF
:100A7000709561957F4F8F4F9F4F0895E89409C0FF
:100A800097FB3EF490958095709561957F4F8F4FC1
:100A90009F4F9923A9F0F92F96E9BB279395F695D7
:100AA000879577956795B795F111F8CFFAF4BB0F55
:100AB00011F460FF1BC06F5F7F4F8F4F9F4F16C0B9
:100AC000882311F096E911C0772321F09EE8872F43
:100AD000762F05C0662371F096E8862F70E060E0FF
:100AE0002AF09A95660F771F881FDAF7880F969578
:100AF000879597F90895990F0008550FAA0BE0E81C
:100B0000FEEF16161706E807F907C0F012161306CF
:100B1000E407F50798F0621B730B840B950B39F40F
:100B20000A2661F0232B242B252B21F408950A2675
:100B300009F4A140A6958FEF811D811D089597F9B5
:100B40009F6780E870E060E008959FEF80EC089573
:100B500000240A941616170618060906089500249C
:100B60000A9412161306140605060895092E039416
:100B7000000C11F4882352F0BB0F40F4BF2B11F48A
:100B800060FF04C06F5F7F4F8F4F9F4F089557FDE9
:100B90009058440F551F59F05F3F71F04795880FEB
:100BA00097FB991F61F09F3F79F087950895121682
:100BB00013061406551FF2CF4695F1DF08C016162E
:100BC00017061806991FF1CF8695710561050894DF
:100BD0000895E894BB2766277727CB0197F90895F6
:100BE0000E9403060C94B6050E94A80538F00E94E6
:100BF000AF0520F0952311F00C949F050C94A505EA
:100C000011240C94EA050E94C70570F3959FC1F367
:100C1000950F50E0551F629FF001729FBB27F00DAA
:100C2000B11D639FAA27F00DB11DAA1F649F6627FF
:100C3000B00DA11D661F829F2227B00DA11D621F4E
:100C4000739FB00DA11D621F839FA00D611D221F08
:100C5000749F3327A00D611D231F849F600D211DEC
:100C6000822F762F6A2F11249F5750409AF0F1F06F
:100C700088234AF0EE0FFF1FBB1F661F771F881FD8
:100C800091505040A9F79E3F510580F00C949F056C
:100C90000C94EA055F3FE4F3983ED4F3869577958C
:100CA0006795B795F795E7959F5FC1F7FE2B880F7E
:100CB000911D9695879597F9089519F416F40C945B
:100CC000A5050C94A3060E94CF05B8F39923C9F398
:100CD000B6F39F57550B87FF0E94B1060024A0E68C
:100CE00040EA900180585695979528F4805C660FED
:100CF000771F881F20F026173707480730F4621B3C
:100D0000730B840B202931294A2BA695179407943D
:100D1000202531254A2758F7660F771F881F20F0B6
:100D200026173707480730F4620B730B840B200D2E
:100D3000311D411DA09581F7B901842F9158880F6D
:100D40009695879508959F3F31F0915020F48795AF
:100D500077956795B795880F911D9695879597F923
:100D6000089591505040660F771F881FD2F708955D
:040D7000F894FFCF25
:100D74000010081804140C1C02120A1A06160E1E7F
:100D84000111091905150D1D03130B1B07170F1F5F
:100D94000000000030681D3C03E51B3D3C93AC3D66
:100DA40034F6153E548C633E6C089E3E950ECE3E42
:100DB4000000003FB6F8183FCAFB303FEB1C473F2A
:100DC40073825A3F9C6D6A3FB341763F658A7D3F8B
:100DD4000000803F658A7D3FB341763F9C6D6A3F4A
:100DE40073825A3FEB1C473FCAFB303FB6F8183FAB
:100DF4000000003F950ECE3E6C089E3E548C633E30
:100E040034F6153E3C93AC3D03E51B3D30681D3C78
:100E14000000000000000000000080BF000000008F
:100E2400F70435BF000080BFF70435BF00000000A1
:100E340007EFC3BEF70435BF66836CBF000080BFF5
:100E440066836CBFF70435BF07EFC3BE0000000024
:100E5400ACC547BE07EFC3BED6390EBFF70435BFD6
:100E640038DB54BF66836CBFBA147BBF000080BFFD
:100E7400BA147BBF66836CBF38DB54BFF70435BF3D
:100E8400D6390EBF07EFC3BEACC547BE0000803FD6
:100E94000000803F000000000000803FF704353F61
:100EA40000000000F70435BF0000803F66836C3FFC
:100EB400F704353F07EFC33E0000000007EFC3BE51
:100EC400F70435BF66836CBF0000803FBA147B3FD4
:100ED40066836C3F38DB543FF704353FD6390E3F09
:100EE40007EFC33EACC5473E00000000ACC547BE9B
:100EF40007EFC3BED6390EBFF70435BF38DB54BF86
:080F040066836CBFBA147BBFC9
:00000001FF
