S00C0000627275682E7372656367
S11300000C9434000C9451000C9451000C94510045
S11300100C9451000C9451000C9451000C94B802AF
S11300200C9451000C9451000C9451000C948103D5
S11300300C9451000C9451000C9451000C945100F8
S11300400C9451000C9451000C9451000C945100E8
S11300500C9451000C9451000C9451000C945100D8
S11300600C9451000C94510011241FBECFEFD8E022
S1130070DEBFCDBF14E0A0E0B1E0EAE4F4E102C0E9
S113008005900D92AC34B107D9F726E0ACE4B4E0A6
S113009001C01D92A637B207E1F70E9403040C9435
S11300A0230A0C9400004F925F926F927F928F927A
S11300B09F92AF92BF92CF92DF92EF92FF92CF9333
S11300C0DF93CDB7DEB728970FB6F894DEBF0FBE27
S11300D0CDBF29833A834B835C836D837E838F8377
S11300E0988789809A80AB80BC80CD80DE80EF8049
S11300F0F884A5019401C501B4010E9422064B01B4
S11301005C01A7019601C701B6010E9422069B016A
S1130110AC01C501B4010E94F2040E949506289620
S11301200FB6F894DEBF0FBECDBFDF91CF91FF9025
S1130130EF90DF90CF90BF90AF909F908F907F9083
S11301406F905F904F9008952F923F924F925F92DD
S11301506F927F928F929F92AF92BF92CF92DF92D3
S1130160EF92FF920F931F93CF93DF93CDB7DEB738
S113017066970FB6F894DEBF0FBECDBF3C0126E0F4
S113018030E03C8B2B8B1A8A198A44244394512CDB
S113019031C14214530441F48F859889840D951D0F
S11301A0988B8F87212C312C89899A89820D931DF4
S11301B090934E0480934D04880F991F880F991FC4
S11301C0FC01E45CFC4F80809180A280B380A3E5B5
S11301D0B4E08D929D92AD92BC921397FC01E05CC9
S11301E0FD4FC080D180E280F380C0925704D0924A
S11301F05804E0925904F0925A04EF85F8892D814D
S11302003E81E20FF31FFE8BED8BF0935204E093DB
S113021051048F01040D151D1093500400934F04D5
S1130220000F111F000F111F000F111F060D171DC6
S1130230D8018D919D910D90BC91A02D8B879C87A9
S1130240AD87BE87D80114968D919D910D90BC9178
S1130250A02D8F839887A987BA872B853C854D85E8
S11302605E85C501B4010E94220669837A838B836B
S11302709C832F81388549855A85C701B6010E9420
S113028022069B01AC0169817A818B819C810E9449
S1130290F10469837A838B839C832B853C854D850C
S11302A05E85C701B6010E9422066B017C012F8185
S11302B0388549855A85C501B4010E9422069B01EF
S11302C0AC01C701B6010E94F2049B01AC01898113
S11302D09A81AB81BC81E3E5F4E080839183A283BE
S11302E0B383209357043093580440935904509394
S11302F05A048D899E89880F991F880F991F880F2A
S1130300991F860D971D98878F83DC0114966D9134
S11303107D918D919C9117970E94F1046B017C0152
S113032029813A814B815C81EF81F88560817181FB
S1130330828193810E94F104D8016D937D938D9302
S11303409C931397F801C482D582E682F7822091A8
S1130350510430915204220F331F220F331F220FF6
S1130360331F260D371D3A832983D90114962D9105
S11303703D914D915C911797609157047091580489
S11303808091590490915A040E94F2046B017C01FB
S1130390E3E5F4E02081318142815381A981BA816E
S11303A06D917D918D919C910E94F204E981FA8175
S11303B06083718382839383C482D582E682F782C9
S11303C0BFEF2B1A3B0AED81FE813196FE83ED834C
S11303D0B09709F0DECE29893A89240D351D3A8B70
S11303E0298B440C551C8B899C8901979C8B8B8B86
S11303F0892B39F01E821D82188A1F86212C312CEC
S1130400C8CE66960FB6F894DEBF0FBECDBFDF919F
S1130410CF911F910F91FF90EF90DF90CF90BF90FD
S1130420AF909F908F907F906F905F904F903F9090
S11304302F90089588E98093C10086E08093C200DC
S11304401092C50087E68093C4000895E0ECF0E0C4
S1130450908195FFFDCF8093C60008950F931F935D
S1130460CF93FC018081882359F08F01C0E00E9462
S11304702602CF5FF801EC0FF11D80818111F7CFC7
S1130480CF911F910F910895CF93DF93CDB7DEB72E
S11304902A970FB6F894DEBF0FBECDBF4AE0BE0167
S11304A06F5F7F4F0E940407CE0101960E942E02C7
S11304B02A960FB6F894DEBF0FBECDBFDF91CF9161
S11304C008958CB580618CBD8DB581608DBD8CB572
S11304D080648CBD08955E988EBD0DB407FEFDCF7B
S11304E07EBD0DB407FEFDCF6EBD0DB407FEFDCF7E
S11304F05E9A089510928000E1E8F0E01082109274
S113050085001092840088E190E0909389008093A4
S11305108800808188608083808183608083EFE6A7
S1130520F0E08081826080830895A0EBB0E01C92AB
S1130530E1EBF0E010821092B20088E18093B30006
S11305408C9182608C93808183608083E0E7F0E00B
S11305508081826080830895E0E7F0E080818D7F70
S113056080830895E0E7F0E08081826080830895CD
S11305701F920F920FB60F9211242F933F934F9314
S11305805F936F937F938F939F93AF93BF93CF9317
S1130590DF93EF93FF9380915B04811173C080918B
S11305A0600490916104019679F4EAE7F0E08081B7
S11305B0806480838091600490916104019690939B
S11305C06104809360045EC0809160049091610432
S11305D0CF9759F5E0916004F0916104E050FF4F2A
S11305E0C081D0E06091790070E060587109072EF5
S11305F0000C880B990B0E949605CC0FDD1FCC0FC5
S1130600DD1FCC0FDD1FCA58DB4F688379838A83D3
S11306109B8381E080935B040E94AC028FEF9FEF89
S113062090936104809360042DC0E0916004F09184
S11306306104E050FF4FC081D0E06091790070E028
S113064060587109072E000C880B990B0E949605BF
S1130650CC0FDD1FCC0FDD1FCC0FDD1FCA58DB4FC5
S1130660688379838A839B83EAE7F0E080818064EE
S11306708083809160049091610401969093610459
S113068080936004FF91EF91DF91CF91BF91AF917F
S11306909F918F917F916F915F914F913F912F9196
S11306A00F900FBE0F901F901895CF932091620466
S11306B0309163042817390710F1109263041092E3
S11306C06204C0914C04C03141F46FEF70E080E0EB
S11306D00E946B0210924C0412C0EC2FF0E061E017
S11306E070E00C2E02C0660F771F0A94E2F7EA59F5
S11306F0FB4F80810E946B02CF5FC0934C04CF916B
S113070008951F920F920FB60F9211242F933F93C7
S11307104F935F936F937F938F939F93AF93BF9305
S1130720EF93FF93809162049091630401969093F8
S113073063048093620480915C0490915D04A091B1
S11307405E04B0915F040196A11DB11D80935C0409
S113075090935D04A0935E04B0935F0481E090E005
S11307600E945503FF91EF91BF91AF919F918F919B
S11307707F916F915F914F913F912F910F900FBE99
S11307800F901F901895E6E6F4E09FEF978780E9B5
S1130790868785878487928781878087878380E897
S11307A0858384839383828381830895AAE7B0E059
S11307B08C9185688C93ECE7F0E080819081807F58
S11307C0892B80838081806280838C9180648C9368
S11307D0EAE7F0E0808186FDFDCF0895DC015096C4
S11307E0E6E6F4E046E754E081E090E09C010E90F8
S11307F002C0220F331F0A94E2F721502193E41719
S1130800F507A1F70895CF93DF93CDB7DEB7A4978B
S11308100FB6F894DEBF0FBECDBF8FEF9FEF90935E
S113082061048093600484B1886284B9229A2A980E
S1130830569A0E9461020E94C303CE0101960E944F
S1130840EE030E94D6030E941A0278948FE99FE077
S11308500197F1F700C000000E947A020E949502FD
S11308600F2EF8E3AF2EF4E0BF2EF02D6E0191E1D0
S1130870C90ED11C6894772471F880915B0481308F
S1130880E1F70F2EF0E08F2EF1E09F2EF02DE12CFA
S1130890F12CD401ED914D018701000F111F000FC0
S11308A0111F000F111F0A581B4FD8016D917D9124
S11308B08D919C91F0E0EE0FFF1FEE0FFF1FE05CA7
S11308C0FE4F20813181428153810E942206F8012A
S11308D060837183828393831482158216821782C4
S11308E0BFEFEB1AFB0AE0E4EE16F10491F6209058
S11308F05C0430905D0440905E0450905F0486E791
S113090094E00E94A40080915C0490915D04A09105
S11309105E04B0915F049C01AD01221933094409BE
S11309205509A4E6B0E00E94EA069F938F937F9353
S11309306F93BF92AF92DF92CF920E942907C601B4
S11309400E942E020FB6F894DEBF0FBECDBFE12C7D
S1130950F12C8701000F111F000F111F000F111F31
S11309600A581B4FD8012C9111963C91119712965D
S11309704C91129713965C91139714966C9114975B
S113098015967C91159716968C91169717969C91AF
S11309900E94530020E030E048EC52E40E9422061A
S11309A00E945E05CB010E94440289E494E00E9407
S11309B02E02F80120813181428153816481758145
S11309C0868197810E945300FFEFEF1AFF0A80E2AD
S11309D0E816F10409F0BDCF70925B040E94B202E4
S11309E04CCF5058BB27AA270E9409050C94E80550
S11309F00E94DA0538F00E94E10520F039F49F3FA7
S1130A0019F426F40C94D7050EF4E095E7FB0C9446
S1130A10D105E92F0E94F90558F3BA176207730745
S1130A208407950720F079F4A6F50C941B060EF4C0
S1130A30E0950B2EBA2FA02D0B01B90190010C01EA
S1130A40CA01A0011124FF27591B99F0593F50F402
S1130A50503E68F11A16F040A22F232F342F44275A
S1130A60585FF3CF469537952795A795F040539552
S1130A70C9F77EF41F16BA0B620B730B840BBAF022
S1130A809150A1F0FF0FBB1F661F771F881FC2F78D
S1130A900EC0BA0F621F731F841F48F487957795A1
S1130AA06795B795F7959E3F08F0B0CF9395880F5B
S1130AB008F09927EE0F9795879508950E9465058C
S1130AC06894B1110C941C0608950E94010688F0E4
S1130AD09F5798F0B92F9927B751B0F0E1F0660FFE
S1130AE0771F881F991F1AF0BA95C9F714C0B1303F
S1130AF091F00E941B06B1E008950C941B06672F29
S1130B00782F8827B85F39F0B93FCCF3869577956D
S1130B106795B395D9F73EF4909580957095619556
S1130B207F4F8F4F9F4F0895E89409C097FB3EF481
S1130B3090958095709561957F4F8F4F9F4F992326
S1130B40A9F0F92F96E9BB279395F69587957795A4
S1130B506795B795F111F8CFFAF4BB0F11F460FF64
S1130B601BC06F5F7F4F8F4F9F4F16C0882311F0BC
S1130B7096E911C0772321F09EE8872F762F05C0D0
S1130B80662371F096E8862F70E060E02AF09A956B
S1130B90660F771F881FDAF7880F9695879597F960
S1130BA0089597F99F6780E870E060E008959FEFEB
S1130BB080EC089500240A941616170618060906F0
S1130BC0089500240A9412161306140605060895BF
S1130BD0092E0394000C11F4882352F0BB0F40F447
S1130BE0BF2B11F460FF04C06F5F7F4F8F4F9F4F87
S1130BF0089557FD9058440F551F59F05F3F71F009
S1130C004795880F97FB991F61F09F3F79F087956F
S1130C100895121613061406551FF2CF4695F1DFF8
S1130C2008C0161617061806991FF1CF8695710588
S1130C30610508940895E894BB2766277727CB01BC
S1130C4097F908950E9435060C94E8050E94DA0588
S1130C5038F00E94E10520F0952311F00C94D105A1
S1130C600C94D70511240C941C060E94F90570F30A
S1130C70959FC1F3950F50E0551F629FF001729F3D
S1130C80BB27F00DB11D639FAA27F00DB11DAA1F4C
S1130C90649F6627B00DA11D661F829F2227B00D99
S1130CA0A11D621F739FB00DA11D621F839FA00D24
S1130CB0611D221F749F3327A00D611D231F849F74
S1130CC0600D211D822F762F6A2F11249F575040CB
S1130CD09AF0F1F088234AF0EE0FFF1FBB1F661F46
S1130CE0771F881F91505040A9F79E3F510580F00F
S1130CF00C94D1050C941C065F3FE4F3983ED4F3A6
S1130D00869577956795B795F795E7959F5FC1F7B2
S1130D10FE2B880F911D9695879597F9089519F4E0
S1130D2016F40C94D7050C94D5060E940106B8F36A
S1130D309923C9F3B6F39F57550B87FF0E94E30627
S1130D400024A0E640EA900180585695979528F42F
S1130D50805C660F771F881F20F026173707480727
S1130D6030F4621B730B840B202931294A2BA6957E
S1130D7017940794202531254A2758F7660F771FC3
S1130D80881F20F026173707480730F4620B730BCF
S1130D90840B200D311D411DA09581F7B901842FCD
S1130DA09158880F9695879508959F3F31F09150FB
S1130DB020F4879577956795B795880F911D96953B
S1130DC0879597F9089591505040660F771F881FB3
S1130DD0D2F708950E94F506A59F900DB49F900D3B
S1130DE0A49F800D911D11240895A29FB001B39F6B
S1130DF0C001A39F700D811D1124911DB29F700D20
S1130E00811D1124911D0895BB274A3031F4992383
S1130E1022F4BDE2909581959F4F0C941007BB2757
S1130E20FB015527AA27880F991FAA1FA41710F0A2
S1130E30A41B83955051B9F7A05DAA3308F0A95DAE
S1130E40A193009779F7B111B1931192CB010C944E
S1130E504209AEE0B0E0EFE2F7E00C94FA090D8944
S1130E601E8986E08C831A8309838FEF9FE79E8314
S1130E708D83AE01475E5F4F6F89788DCE010196F9
S1130E800E944B07EF81F885E00FF11F10822E9628
S1130E90E4E00C94160AABE0B0E0E1E5F7E00C9472
S1130EA0EC096C017B018A01FC01178216828381A3
S1130EB081FFCCC1CE0101963C01F6019381F7017B
S1130EC093FD859193FF81917F01882309F4BAC131
S1130ED0853239F493FD859193FF81917F018532A9
S1130EE029F4B60190E00E945209E7CF912C212CFD
S1130EF0312CFFE1F315D8F08B3279F038F48032DD
S1130F0079F08332A1F4232D20611DC08D3261F06C
S1130F10803369F4232D216016C0832D8260382E1E
S1130F20E32DE4603E2E2AC0F32DF8601DC037FC8B
S1130F302DC020ED280F2A3040F08E32B9F436FC53
S1130F4081C1232D2064322E19C036FE06C08AE0EA
S1130F50989E200D1124922E11C0EAE02E9E200DA1
S1130F601124222EF32DF0623F2E08C08C3621F47A
S1130F70832D8068382E02C0883641F4F70193FD32
S1130F80859193FF81917F018111B3CF982F9F7D2C
S1130F909554933028F40C5F1F4F9FE399830DC041
S1130FA0833631F0833771F0833509F059C021C09D
S1130FB0F801808189830E5F1F4F88248394912CCC
S1130FC0530113C02801F2E04F0E511CF801A08018
S1130FD0B18036FE03C0692D70E002C06FEF7FEF71
S1130FE0C5010E9437094C018201F32DFF773F2E82
S1130FF016C0280122E0420E511CF801A080B180E5
S113100036FE03C0692D70E002C06FEF7FEFC501AB
S11310100E942C094C01F32DF0683F2E820133FC11
S11310201BC0822D90E088169906B0F4B60180E2C8
S113103090E00E9452092A94F4CFF50137FC85917F
S113104037FE81915F01B60190E00E9452092110A0
S11310502A9421E0821A91088114910471F7E8C05E
S1131060843611F0893641F5F80137FE07C06081F6
S11310707181828193810C5F1F4F08C060817181EF
S1131080072E000C880B990B0E5F1F4FF32DFF7674
S11310903F2E97FF09C090958095709561957F4F7D
S11310A08F4F9F4FF0683F2E2AE030E0A3010E944B
S11310B08E09882E861845C0853731F4232D2F7E5E
S11310C0B22E2AE030E025C0932D997FB92E8F36B9
S11310D0C1F018F4883579F0B5C0803719F0883735
S11310E021F0B0C0E92FE061BE2EB4FE0DC0FB2D8F
S11310F0F460BF2E09C034FE0AC0292F2660B22E28
S113110006C028E030E005C020E130E002C020E164
S113111032E0F801B7FE07C060817181828193815A
S11311200C5F1F4F06C06081718180E090E00E5F0C
S11311301F4FA3010E948E09882E8618FB2DFF776E
S11311403F2E36FE0DC0232D2E7FA22E891458F477
S113115034FE0BC032FC09C0832D8E7EA82E05C040
S1131160B82CA32C03C0B82C01C0B92CA4FE0FC00A
S1131170FE01E80DF11D8081803321F49A2D997EC2
S1131180A92E09C0A2FE06C0B394B39404C08A2D4C
S1131190867809F0B394A3FC11C0A0FE06C0B21473
S11311A088F4280C922C9B180EC0B21460F4B6017B
S11311B080E290E00E945209B394F7CFB21418F47D
S11311C02B1802C0982C212CA4FE10C0B60180E379
S11311D090E00E945209A2FE17C0A1FC03C088E758
S11311E090E002C088E590E0B6010CC08A2D8678B4
S11311F059F0A1FE02C08BE201C080E2A7FC8DE29F
S1131200B60190E00E945209891438F4B60180E3D3
S113121090E00E9452099A94F7CF8A94F301E80D62
S1131220F11D8081B60190E00E9452098110F5CF32
S1131230222009F442CEB60180E290E00E945209D5
S11312402A94F6CFF6018681978102C08FEF9FEF33
S11312502B96E2E10C94080AFC0105906150704061
S11312600110D8F7809590958E0F9F1F0895FC016B
S11312706150704001900110D8F7809590958E0FC1
S11312809F1F0895DC01FC01672F71917723E1F71B
S1131290329704C07C916D9370836291AE17BF073F
S11312A0C8F308950F931F93CF93DF93FB0123811A
S11312B021FD03C08FEF9FEF2CC022FF16C0468193
S11312C05781248135814217530744F4A081B181A9
S11312D09D012F5F3F4F318320838C93268137817B
S11312E02F5F3F4F3783268314C08B01EC01FB0132
S11312F00084F185E02D0995892BE1F6D801169635
S11313008D919C911797019617969C938E9316979F
S1131310CE01DF91CF911F910F910895FA01AA2771
S1131320283051F1203181F1E8946F936E7F6E5F24
S11313307F4F8F4F9F4FAF4FB1E03ED0B4E03CD0D2
S1131340670F781F891F9A1FA11D680F791F8A1FB5
S1131350911DA11D6A0F711D811D911DA11D20D01C
S113136009F468943F912AE0269F11243019305DD6
S11313703193DEF6CF010895462F4770405D4193C7
S1131380B3E00FD0C9F7F6CF462F4F70405D4A3314
S113139018F0495D31FD4052419302D0A9F7EACFDC
S11313A0B4E0A6959795879577956795BA95C9F70B
S11313B000976105710508959B01AC010A2E0694FE
S11313C05795479537952795BA95C9F7620F731FB7
S11313D0841F951FA01D08952F923F924F925F92F4
S11313E06F927F928F929F92AF92BF92CF92DF9231
S11313F0EF92FF920F931F93CF93DF93CDB7DEB796
S1131400CA1BDB0B0FB6F894DEBF0FBECDBF099429
S11314102A88398848885F846E847D848C849B8480
S1131420AA84B984C884DF80EE80FD800C811B818E
S1131430AA81B981CE0FD11D0FB6F894DEBF0FBEBD
S10D1440CDBFED010895F894FFCF2D
S113144A0020103008281838042414340C2C1C3CAE
S113145A022212320A2A1A3A062616360E2E1E3E7E
S113146A0121113109291939052515350D2D1D3D7E
S113147A032313330B2B1B3B072717370F2F1F3F4E
S113148A000000007FC91D3B30681D3C435FB03C2F
S113149A03E51B3D4CD3713D3C93AC3D1170E83DD3
S11314AA34F6153EB6303B3E548C633E9752873E23
S11314BA6C089E3EF3AFB53E950ECE3E4BE8E63E33
S11314CA0000003FDB8B0C3FB6F8183F0728253F86
S11314DACAFB303FB4563C3FEB1C473FD333513F22
S11314EA73825A3FFEF1623F9C6D6A3FD2E2703FBB
S11314FAB341763F037D7A3F658A7D3F30627F3F01
S113150A0000803F30627F3F658A7D3F037D7A3FDA
S113151AB341763FD2E2703F9C6D6A3FFEF1623F6F
S113152A73825A3FD333513FEB1C473FB4563C3F77
S113153ACAFB303F0728253FB6F8183FDB8B0C3F20
S113154A0000003F4BE8E63E950ECE3EF3AFB53EB3
S113155A6C089E3E9752873E548C633EB6303B3E9F
S113156A34F6153E1170E83D3C93AC3D4CD3713DC5
S113157A03E51B3D435FB03C30681D3C7FC91D3BFE
S113158A0000000000000000000080BF000000000E
S113159AF70435BF000080BFF70435BF0000000020
S11315AA07EFC3BEF70435BF66836CBF000080BF74
S11315BA66836CBFF70435BF07EFC3BE00000000A3
S11315CAACC547BE07EFC3BED6390EBFF70435BF55
S11315DA38DB54BF66836CBFBA147BBF000080BF7C
S11315EABA147BBF66836CBF38DB54BFF70435BFBC
S11315FAD6390EBF07EFC3BEACC547BE0000000014
S113160A30BDC8BDACC547BE3CA094BE07EFC3BE3F
S113161AF35AF1BED6390EBF946722BFF70435BF19
S113162AFCE345BF38DB54BF93C561BF66836CBF17
S113163A05FA74BFBA147BBF72C47EBF000080BFB0
S113164A72C47EBFBA147BBF05FA74BF66836CBFCB
S113165A93C561BF38DB54BFFCE345BFF70435BF0C
S113166A946722BFD6390EBFF35AF1BE07EFC3BE41
S113167A3CA094BEACC547BE30BDC8BD0000803F87
S113168A0000803F000000000000803FF704353F5F
S113169A00000000F70435BF0000803F66836C3FFA
S11316AAF704353F07EFC33E0000000007EFC3BE4F
S11316BAF70435BF66836CBF0000803FBA147B3FD2
S11316CA66836C3F38DB543FF704353FD6390E3F07
S11316DA07EFC33EACC5473E00000000ACC547BE99
S11316EA07EFC3BED6390EBFF70435BF38DB54BF84
S11316FA66836CBFBA147BBF0000803F72C47E3F0E
S113170ABA147B3F05FA743F66836C3F93C5613F05
S113171A38DB543FFCE3453FF704353F9467223FE7
S113172AD6390E3FF35AF13E07EFC33E3CA0943E2E
S113173AACC5473E30BDC83D0000000030BDC8BD41
S113174AACC547BE3CA094BE07EFC3BEF35AF1BE74
S113175AD6390EBF946722BFF70435BFFCE345BFF1
S113176A38DB54BF93C561BF66836CBF05FA74BF87
S113177ABA147BBF72C47EBF0A46465420544F4FE4
S10F178A4B2025642075730A0020000029
S9030000FC
