:100000000C9434000C9451000C9451000C94510049
:100010000C9451000C9451000C9451000C94B000BD
:100020000C9451000C9451000C9451000C947901E3
:100030000C9451000C9451000C9451000C945100FC
:100040000C9451000C9451000C9451000C945100EC
:100050000C9451000C9451000C9451000C945100DC
:100060000C9451000C94510011241FBECFEFD8E026
:10007000DEBFCDBF11E0A0E0B1E0EEE8F4E002C0E9
:1000800005900D92A034B107D9F723E0A0E4B1E0C8
:1000900001C01D92AC35B207E1F70E94E6010C9455
:1000A00045020C94000088E98093C10086E08093AB
:1000B000C2001092C50087E68093C40008958CB5F5
:1000C00080618CBD8DB581608DBD8CB580648CBD2B
:1000D00008955E988EBD0DB407FEFDCF7EBD0DB4B4
:1000E00007FEFDCF6EBD0DB407FEFDCF5E9A0895ED
:1000F00010928000E1E8F0E01082109285001092EA
:10010000840088E190E0909389008093880080814A
:1001100088608083808183608083EFE6F0E0808167
:10012000826080830895A0EBB0E01C92E1EBF0E0E8
:1001300010821092B20080E38093B3008C918260B1
:100140008C93808183608083E0E7F0E0808182602F
:1001500080830895E0E7F0E080818D7F80830895BB
:100160001F920F920FB60F9211242F933F934F932C
:100170005F936F937F938F939F93AF93BF93CF932F
:10018000DF93EF93FF9380914101811173C08091C0
:10019000460190914701019679F4EAE7F0E0808109
:1001A00080648083809146019091470101969093ED
:1001B0004701809346015EC08091460190914701BE
:1001C000CF9759F5E0914601F0914701E050FF4F7C
:1001D000C081D0E06091790070E060587109072E0D
:1001E000000C880B990B0E940A02CC0FDD1FCC0F6C
:1001F000DD1FCC0FDD1FC45ADE4F688379838A83ED
:100200009B8381E0809341010E94AA008FEF9FEFC2
:1002100090934701809346012DC0E0914601F091F3
:100220004701E050FF4FC081D0E06091790070E05D
:1002300060587109072E000C880B990B0E940A0266
:10024000CC0FDD1FCC0FDD1FCC0FDD1FC45ADE4FDE
:10025000688379838A839B83EAE7F0E08081806406
:1002600080838091460190914701019690934701C8
:1002700080934601FF91EF91DF91CF91BF91AF91B4
:100280009F918F917F916F915F914F913F912F91AE
:100290000F900FBE0F901F901895CF93209148019B
:1002A000309149012817390710F110924901109235
:1002B0004801C0914001C03141F46FEF70E080E02F
:1002C0000E9469001092400112C0EC2FF0E061E042
:1002D00070E00C2E02C0660F771F0A94E2F7E45B11
:1002E000FE4F80810E946900CF5FC0934001CF9193
:1002F00008951F920F920FB60F9211242F933F93E0
:100300004F935F936F937F938F939F93AF93BF931D
:10031000EF93FF938091480190914901019690934A
:100320004901809348018091420190914301A0913D
:100330004401B09145010196A11DB11D8093420178
:1003400090934301A0934401B093450181E090E074
:100350000E944D01FF91EF91BF91AF919F918F91BD
:100360007F916F915F914F913F912F910F900FBEB1
:100370000F901F901895ECE4F1E09FEF978780E9CC
:10038000868785878487928781878087878380E8AF
:10039000858384839383828381830895AAE7B0E071
:1003A0008C9185688C93ECE7F0E080819081807F70
:1003B000892B80838081806280838C9180648C9380
:1003C000EAE7F0E0808186FDFDCF08958FEF9FEF93
:1003D000909347018093460184B1886284B9229A40
:1003E0002A98209A569A289A0E945F000E94BB0180
:1003F0000E94CE010E94530078948FE99FE00197FC
:10040000F1F700C000000E9478000E949300FFCF27
:10041000E89409C097FB3EF490958095709561959E
:100420007F4F8F4F9F4F9923A9F0F92F96E9BB2754
:100430009395F695879577956795B795F111F8CFD0
:10044000FAF4BB0F11F460FF1BC06F5F7F4F8F4F3B
:100450009F4F16C0882311F096E911C0772321F031
:100460009EE8872F762F05C0662371F096E8862FC9
:1004700070E060E02AF09A95660F771F881FDAF720
:0E048000880F9695879597F90895F894FFCF09
:10048E000020103008281838042414340C2C1C3C7E
:10049E00022212320A2A1A3A062616360E2E1E3E4E
:1004AE000121113109291939052515350D2D1D3D4E
:1004BE00032313330B2B1B3B072717370F2F1F3F1E
:00000001FF
