:100000000C9461000C947E000C947E000C947E0095
:100010000C947E000C947E000C947E000C945E0286
:100020000C947E000C947E000C947E000C942703AC
:100030000C947E000C947E000C947E000C947E0048
:100040000C947E000C947E000C947E000C947E0038
:100050000C947E000C947E000C947E000C947E0028
:100060000C947E000C947E0008000000BE9224498F
:10007000123EABAAAA2ABECDCCCC4C3E00000080DA
:10008000BEABAAAAAA3E00000000BF000000803F4D
:100090000000000000084178D3BB4387D1133D190D
:1000A0000E3CC3BD4282AD2B3E68EC8276BED98F3A
:1000B000E1A93E4C80EFFFBE01C4FF7F3F0000007E
:1000C000000011241FBECFEFD8E0DEBFCDBF14E08B
:1000D000A0E0B1E0E4E1FEE002C005900D92A032A4
:1000E000B107D9F725E0A0E2B4E001C01D92AC331E
:1000F000B207E1F70E94CF030C9408070C940000AC
:100100004F925F926F927F928F929F92AF92BF9227
:10011000CF92DF92EF92FF92CF93DF93CDB7DEB70E
:1001200028970FB6F894DEBF0FBECDBF29833A8360
:100130004B835C836D837E838F83988789809A80CD
:10014000AB80BC80CD80DE80EF80F884A501940177
:10015000C501B4010E9419064B015C01A70196017B
:10016000C701B6010E9419069B01AC01C501B4018B
:100170000E946B040E948C0628960FB6F894DEBF8E
:100180000FBECDBFDF91CF91FF90EF90DF90CF906A
:10019000BF90AF909F908F907F906F905F904F90A7
:1001A00008952F923F924F925F926F927F928F921B
:1001B0009F92AF92BF92CF92DF92EF92FF920F93F6
:1001C0001F93CF93DF93CDB7DEB76A970FB6F8943E
:1001D000DEBF0FBECDBF2C0180EE92E09E8B8D8BDB
:1001E000A0EAB1E0B88FAF8B66246394712CE7C0AE
:1001F000ED81FE81E615F70541F48B899C89860D1A
:10020000971D9C8B8B8B1E821D82EF85F8898191B7
:100210009191A191B191F88BEF878F839887A987EE
:10022000BA87E989FA8981919191A191B191FA8B6B
:10023000E98B8B879C87AD87BE878B899C89820DD4
:10024000931D9A8F898F8C01060D171D000F111FAA
:10025000000F111F000F111F040D151DD8018D90E7
:100260009D90AD90BC9013971496CD90DD90ED903D
:10027000FC901797A50194016F81788589859A85EF
:100280000E94190669837A838B839C83A701960158
:100290006B857C858D859E850E9419069B01AC012E
:1002A00069817A818B819C810E946A0469837A8347
:1002B0008B839C83A50194016B857C858D859E85B0
:1002C0000E9419064B015C01A70196016F81788598
:1002D00089859A850E9419069B01AC01C501B4016C
:1002E0000E946B046B017C01E98DFA8DEE0FFF1FFC
:1002F000EE0FFF1FEE0FFF1FE40DF51DF887EF83D4
:100300009B01AC0164817581868197810E946A049A
:100310004B015C0129813A814B815C81AF81B885B9
:100320006D917D918D919C910E946A04F80160838A
:1003300071838283938384829582A682B782EF81C0
:10034000F8852481358146815781C701B6010E9415
:100350006B046B017C0129813A814B815C81AF8107
:10036000B8856D917D918D919C910E946B04EF8178
:10037000F8856083718382839383C482D582E68209
:10038000F782ED81FE813196FE83ED83FFEF2F1A18
:100390003F0A20E12216310409F02ACF660C771CAF
:1003A0008D899E89805C9F4F9E8B8D8BAF89B88D88
:1003B000A05CBF4FB88FAF8B8052944079F0EF892B
:1003C000F88DFA8BE98B8D899E89988B8F87212CEC
:1003D000312C1C8A1B8A1E821D820ACF6A960FB698
:1003E000F894DEBF0FBECDBFDF91CF911F910F916B
:1003F000FF90EF90DF90CF90BF90AF909F908F9045
:100400007F906F905F904F903F902F9008958CB5A4
:1004100080618CBD8DB581608DBD8CB580648CBDD7
:1004200008955E988EBD0DB407FEFDCF7EBD0DB460
:1004300007FEFDCF6EBD0DB407FEFDCF5E9A089599
:1004400010928000E1E8F0E0108210928500109296
:10045000840088E190E090938900809388008081F7
:1004600088608083808183608083EFE6F0E0808114
:10047000826080830895A0EBB0E01C92E1EBF0E095
:1004800010821092B20088E18093B3008C91826058
:100490008C93808183608083E0E7F0E080818260DC
:1004A00080830895E0E7F0E080818D7F8083089568
:1004B000E0E7F0E080818260808308951F920F92D0
:1004C0000FB60F9211242F933F934F935F936F9327
:1004D0007F938F939F93AF93BF93CF93DF93EF93CC
:1004E000FF9380912104811173C080912604909123
:1004F0002704019679F4EAE7F0E080818064808344
:10050000809126049091270401969093270480936C
:1005100026045EC080912604909127044F9759F5D8
:10052000E0912604F0912704E050FF4FC081D0E015
:100530006091790070E060587109072E000C880BFB
:10054000990B0E941405CC0FDD1FCC0FDD1FCC0FC3
:10055000DD1FC45CDB4F688379838A839B8381E0E2
:10056000809321040E9452028FEF9FEF9093270403
:10057000809326042DC0E0912604F0912704E050DA
:10058000FF4FC081D0E06091790070E06058710940
:10059000072E000C880B990B0E941405CC0FDD1F51
:1005A000CC0FDD1FCC0FDD1FC45CDB4F688379836C
:1005B0008A839B83EAE7F0E0808180648083809176
:1005C0002604909127040196909327048093260493
:1005D000FF91EF91DF91CF91BF91AF919F918F915B
:1005E0007F916F915F914F913F912F910F900FBE2F
:1005F0000F901F901895CF932091280430912904D3
:100600002817390710F11092290410922804C0917C
:100610002004C03141F46FEF70E080E00E941102CD
:100620001092200412C0EC2FF0E061E070E00C2E7C
:1006300002C0660F771F0A94E2F7E45DFB4F8081EA
:100640000E941102CF5FC0932004CF9108951F92A2
:100650000F920FB60F9211242F933F934F935F93F6
:100660006F937F938F939F93AF93BF93EF93FF937A
:1006700080912804909129040196909329048093F5
:1006800028048091220490912304A0912404B09125
:1006900025040196A11DB11D80932204909323048B
:1006A000A0932404B093250481E090E00E94FB0213
:1006B000FF91EF91BF91AF919F918F917F916F913A
:1006C0005F914F913F912F910F900FBE0F901F9010
:1006D0001895ECE2F4E09FEF978780E9868785879D
:1006E0008487928781878087878380E88583848356
:1006F0009383828381830895AAE7B0E08C91856813
:100700008C93ECE7F0E080819081807F892B80835F
:100710008081806280838C9180648C93EAE7F0E032
:10072000808186FDFDCF0895DC01ECE2F4E04CE32E
:1007300054E081E090E09C010D9002C0220F331F35
:100740000A94E2F721502193E417F507A1F70895E1
:10075000CF92DF92EF92FF926B017C0120E030E0BC
:1007600040EE50E40E94C40518167CF020E030E012
:10077000A901C701B6010E94D70488234CF0C70124
:10078000B6010E94DC04CB0105C088E090E002C005
:1007900080E090E0FF90EF90DF90CF900895CF93AE
:1007A000DF93CDB7DEB760970FB6F894DEBF0FBE0C
:1007B000CDBF8FEF9FEF909327048093260484B1E1
:1007C000886284B9229A2A98569A0E9407020E9447
:1007D0006903CE0101960E9494030E947C037894E1
:1007E0008FE99FE00197F1F700C000000E9420020E
:1007F0000E943B02809121048130E1F70F2EF0E04E
:10080000CF2EF1E0DF2EF02DE12CF12CD601ED9171
:100810006D018701000F111F000F111F000F111F25
:10082000045C1B4FD8016D917D918D919C91F0E0FE
:10083000EE0FFF1FEE0FFF1FE05EFE4F20813181A4
:10084000428153810E941906F8016083718382837B
:1008500093831482158216821782BFEFEB1AFB0A6C
:10086000E0E2EE16F10491F68CE394E00E94D100F0
:100870007E01F2E0EF0EF11C01E010E0F801EE0F56
:10088000FF1FEE0FFF1FEE0FFF1FE45CFB4F2081E9
:1008900031814281538164817581868197810E9473
:1008A00080000E94D1059B01AC010E946B040E9454
:1008B000A803D7018D937D010F5F1F4F00311105F4
:1008C000E9F6CE0101960E949403109221040E9441
:1008D000580290CF5058BB27AA270E9482040C943C
:1008E0008A050E947C0538F00E94830520F039F4C7
:1008F0009F3F19F426F40C9479050EF4E095E7FB7C
:100900000C947305E92F0E949B0558F3BA176207F0
:1009100073078407950720F079F4A6F50C94BD05BC
:100920000EF4E0950B2EBA2FA02D0B01B90190010A
:100930000C01CA01A0011124FF27591B99F0593F4E
:1009400050F4503E68F11A16F040A22F232F342F96
:100950004427585FF3CF469537952795A795F040E4
:100960005395C9F77EF41F16BA0B620B730B840BF9
:10097000BAF09150A1F0FF0FBB1F661F771F881FB1
:10098000C2F70EC0BA0F621F731F841F48F4879509
:1009900077956795B795F7959E3F08F0B0CF9395FB
:1009A000880F08F09927EE0F9795879508950E9474
:1009B0004F0508F481E008950E94E3046894B111A2
:1009C0000C94BE0508950E94A30588F09F5798F0E7
:1009D000B92F9927B751B0F0E1F0660F771F881F44
:1009E000991F1AF0BA95C9F714C0B13091F00E945E
:1009F000BD05B1E008950C94BD05672F782F8827B9
:100A0000B85F39F0B93FCCF3869577956795B39584
:100A1000D9F73EF490958095709561957F4F8F4FF3
:100A20009F4F0895E89409C097FB3EF490958095F8
:100A3000709561957F4F8F4F9F4F9923A9F0F92FA4
:100A400096E9BB279395F695879577956795B79522
:100A5000F111F8CFFAF4BB0F11F460FF1BC06F5F08
:100A60007F4F8F4F9F4F16C0882311F096E911C01A
:100A7000772321F09EE8872F762F05C0662371F03B
:100A800096E8862F70E060E02AF09A95660F771F4F
:100A9000881FDAF7880F9695879597F90895990F2B
:100AA0000008550FAA0BE0E8FEEF16161706E80738
:100AB000F907C0F012161306E407F50798F0621B59
:100AC000730B840B950B39F40A2661F0232B242B2E
:100AD000252B21F408950A2609F4A140A6958FEF4D
:100AE000811D811D089597F99F6780E870E060E09F
:100AF00008959FEF80EC089500240A9416161706B7
:100B000018060906089500240A94121613061406FE
:100B100005060895092E0394000C11F4882352F061
:100B2000BB0F40F4BF2B11F460FF04C06F5F7F4F19
:100B30008F4F9F4F089557FD9058440F551F59F000
:100B40005F3F71F04795880F97FB991F61F09F3FBA
:100B500079F087950895121613061406551FF2CFE3
:100B60004695F1DF08C0161617061806991FF1CF33
:100B700086957105610508940895E894BB2766275A
:100B80007727CB0197F908950E944F0508F48FEF5E
:100B9000089516F00C94CC060C94790568940C9486
:100BA00073050E94A305A8F39923C1F3AEF3DF9365
:100BB000CF931F930F93FF92C92FDD2788232AF02D
:100BC0002197660F771F881FDAF720E030E040E8B2
:100BD0005FEB9FE3883920F0803E38F021968F77D5
:100BE0000E946B04E8E6F0E004C00E946B04E5E9B3
:100BF000F0E00E94E1068B01BE01EC01FB2E6F5775
:100C000071097595771F880B990B0E94140528E1CF
:100C100032E741E35FE30E942C06AF2D9801AE015D
:100C2000FF900F911F91CF91DF910E9482040C944D
:100C30008A050E942C060C948A050E947C0538F0D7
:100C40000E94830520F0952311F00C9473050C94F9
:100C5000790511240C94BE050E949B0570F3959FA5
:100C6000C1F3950F50E0551F629FF001729FBB27A3
:100C7000F00DB11D639FAA27F00DB11DAA1F649F3F
:100C80006627B00DA11D661F829F2227B00DA11DF2
:100C9000621F739FB00DA11D621F839FA00D611D78
:100CA000221F749F3327A00D611D231F849F600D99
:100CB000211D822F762F6A2F11249F5750409AF0C2
:100CC000F1F088234AF0EE0FFF1FBB1F661F771F4E
:100CD000881F91505040A9F79E3F510580F00C9419
:100CE00073050C94BE055F3FE4F3983ED4F38695FC
:100CF00077956795B795F795E7959F5FC1F7FE2BB9
:100D0000880F911D9695879597F9089519F416F413
:100D10000C9479050C94CC060E94A305B8F3992392
:100D2000C9F3B6F39F57550B87FF0E94DA060024DC
:100D3000A0E640EA900180585695979528F4805C8B
:100D4000660F771F881F20F026173707480730F4F3
:100D5000621B730B840B202931294A2BA69517940B
:100D60000794202531254A2758F7660F771F881FDB
:100D700020F026173707480730F4620B730B840BFB
:100D8000200D311D411DA09581F7B901842F915887
:100D9000880F9695879508959F3F31F0915020F4E4
:100DA000879577956795B795880F911D9695879547
:100DB00097F9089591505040660F771F881FD2F71A
:100DC0000895DF93CF931F930F93FF92EF92DF92DB
:100DD0007B018C01689406C0DA2EEF010E942C067C
:100DE000FE01E894A5912591359145915591A6F381
:100DF000EF010E948204FE019701A801DA9469F7CD
:100E0000DF90EF90FF900F911F91CF91DF910895A8
:040E1000F894FFCF84
:100E14000010081804140C1C02120A1A06160E1EDE
:100E24000111091905150D1D03130B1B07170F1FBE
:100E3400000000005B681D3CCDE41B3D2193AC3DEC
:100E4400FDF6153E058B633EAF089E3EED0DCE3E8E
:100E54000000003F09F9183FA9FB303F3F1D473F01
:100E640041825A3F486D6A3FB341763F338A7D3FA2
:100E74000000803F338A7D3FB341763F486D6A3F2F
:100E840041825A3F3F1D473FA9FB303F09F9183FB4
:100E94000000003FED0DCE3EAF089E3E058B633E45
:100EA400FDF6153E2193AC3DCDE41B3D5B681D3C36
:100EB400000000000000000000000000000000002E
:100EC400000000000000000000000000000000001E
:100ED400000000000000000000000000000000000E
:100EE40000000000000000000000000000000000FE
:100EF40000000000000080BF00000000000080BF70
:100F040000000000000080BF00000000000080BF5F
:100F140000000000000080BF00000000000080BF4F
:100F240000000000000080BF00000000000080BF3F
:100F340000000000290535BF000080BF290535BF2A
:100F440000000000290535BF000080BF290535BF1A
:100F540000000000290535BF000080BF290535BF0A
:100F640000000000290535BF000080BF290535BFFA
:100F740000000000A2EEC3BE290535BF66836CBF26
:100F8400000080BF66836CBF290535BFA2EEC3BED7
:100F940000000000A2EEC3BE290535BF66836CBF06
:100FA400000080BF66836CBF290535BFA2EEC3BEB7
:100FB40000000000ACC547BEA2EEC3BED6390EBFCA
:100FC400290535BF38DB54BF66836CBF0E157BBF64
:100FD400000080BF0E157BBF66836CBF38DB54BF37
:100FE400290535BFD6390EBFA2EEC3BEACC547BE78
:100FF4000000803F0000803F0000803F0000803FF1
:101004000000803F0000803F0000803F0000803FE0
:101014000000803F0000803F0000803F0000803FD0
:101024000000803F0000803F0000803F0000803FC0
:101034000000803F000000000000803F000000002E
:101044000000803F000000000000803F000000001E
:101054000000803F000000000000803F000000000E
:101064000000803F000000000000803F00000000FE
:101074000000803F2905353F00000000290535BFE9
:101084000000803F2905353F00000000290535BFD9
:101094000000803F2905353F00000000290535BFC9
:1010A4000000803F2905353F00000000290535BFB9
:1010B4000000803F66836C3F2905353FA2EEC33EA6
:1010C40000000000A2EEC3BE290535BF66836CBFD5
:1010D4000000803F66836C3F2905353FA2EEC33E86
:1010E40000000000A2EEC3BE290535BF66836CBFB5
:1010F4000000803F0E157B3F66836C3F38DB543F16
:101104002905353FD6390E3FA2EEC33EACC5473E56
:1011140000000000ACC547BEA2EEC3BED6390EBF68
:10112400290535BF38DB54BF66836CBF0E157BBF02
:00000001FF
